:020000040800F2
:10000000F849002001010008A9280008C9010008DA
:10001000A1270008310800081B4600080000000066
:10002000000000000000000000000000153C000877
:10003000BB0E00080000000053010008673F0008E5
:100040001B0100081B0100081B010008693500089E
:100050001B0100081B0100081B0100081B01000810
:100060001B0100081B0100081B0100081B01000800
:100070001B0100081B0100081B0100081B010008F0
:10008000910C00081B0100081B0100081B0100085F
:100090001B0100081B0100081B0100081B010008D0
:1000A0001B0100081B0100081B0100081B010008C0
:1000B000D93F0008114000081B0100081B0100087F
:1000C0001B0100081B0100081B0100081B010008A0
:1000D0001B010008094400081B0100081B0100085F
:1000E0001B0100081B0100081B010008DFF80CD0F1
:1000F00000F0DAF80048004723030008F849002020
:100100000648804706480047FEE7FEE7FEE7FEE7B1
:10011000FEE7FEE7FEE7FEE7FEE7FEE7793F0008C1
:10012000ED000008EFF3108072B6704780F310887E
:100130007047324A1368012B04D04FF0010313605B
:100140002F4A10602F4A11602F484FF080510160F4
:100150007047EFF3108272B62848016891B14FF0F2
:10016000000101602648016829B1EFF3098121E906
:10017000F00F00680160234909680968B1E8F00FD1
:1001800081F3098882F310884EF0040E70471D49F0
:1001900008601B494FF00000086018494FF001004B
:1001A00008601A481A49D0F8002041EA02010160AB
:1001B00015484FF08051016016480068006880F3D0
:1001C000088861B662B670471EF0040F0CBFEFF3EB
:1001D0000880EFF3098020E9F00F40F804ED1EF0ED
:1001E000040F0CBF80F3088880F3098800B505F080
:1001F000DBFD5DF804EB4EF0040E704700090020B3
:10020000F8080020FC08002004ED00E020ED00E0EC
:100210000000FFFF08ED00E00649074A0868504368
:1002200043F23902104408604008704701490860F1
:1002300070470000080900206D4EC64140EA0103E6
:100240009B0703D009E008C9121F08C0042AFAD28C
:1002500003E011F8013B00F8013B521EF9D2704750
:1002600010B5002200E0521C835C8C5CA34201D1DB
:10027000002BF8D1D8B2E1B2401A10BD30B50B4610
:10028000014600202022012409E021FA02F59D42C6
:1002900005D303FA02F5491B04FA02F52844151E9A
:1002A000A2F10102F1DC30BD064C074D06E0E0682A
:1002B00040F0010394E8070098471034AC42F6D3AD
:1002C000FFF718FFE09F000800A0000870B58C1829
:1002D00010F8015B15F0070301D110F8013B2A115A
:1002E00006D110F8012B03E010F8016B01F8016B47
:1002F0005B1EF9D12B0705D40023521E0DD401F843
:10030000013BFAE710F8013BCB1A921C03E013F80B
:10031000015B01F8015B521EF9D5A142D8D3002040
:1003200070BD10B507F074FA002010BD10B500F0D4
:100330003FF810BD10B500F079F810BD10B500F011
:1003400081F810BD10B500F089F810BD2DE9F0411D
:1003500005460C4608261027104800EB0518CCB1BE
:10036000206920606069C01B401C606020693044C7
:10037000A0616069E061A660E760206A10B9C4F816
:10038000208004E010224146206AFFF757FF00203A
:10039000BDE8F0814FF0FF30FAE70000E478000894
:1003A00008B10822026009B110220A6070470000FB
:1003B00010B504A1054800F025F90448C169884733
:1003C00010BD00006265657000000000C4010020DF
:1003D00010B504F095F900F001F810BD10B506A1B4
:1003E000074800F051FA07A1084800F04DFA08A1AB
:1003F000094800F049FA10BD4B4559310000000092
:10040000F40000204B45593200000000100100208C
:100410004B455933000000002C01002010B5024864
:1004200002F046F810BD00004C01002010B502A1FA
:10043000034800F0FBFE10BD6F6C65640000000017
:100440006401002010B502A1034800F057FF10BD61
:100450006173636969000000AC01002010B502A15E
:10046000034801F0CBFD10BD69326331000000008C
:10047000C400002010B5FFF7D1FF10BD10B500F08B
:1004800001F810BD10B504A1054802F073F805A1EC
:10049000054802F06FF810BD574849544500000068
:1004A0009400002052454400AC00002010B512A179
:1004B000134802F033FB13A1154802F02FFB15A1DE
:1004C000164802F02BFB16A1174802F027FB17A1D4
:1004D000174802F023FB17A1184802F01FFB18A1D0
:1004E0001A4802F01BFB1AA11C4802F017FB1CA1C2
:1004F0001E4802F013FB10BD686F6D650000000020
:10050000E405002074656D7061747572650000000B
:100510002006002067616D65000000005C06002079
:10052000706C617965720000980600207365740034
:10053000D4060020696E666F0000000010070020DE
:1005400067616D655F737461727400002C07002031
:1005500067616D655F7365740000000048070020E7
:1005600067616D655F696E666F000000640700205B
:1005700010B500F003F803F0E3FB10BD10B5094817
:1005800003F038F9084803F035F9084803F032F968
:10059000074803F02FF9074803F02CF9064803F049
:1005A00029F910BDA8020020D40200202003002059
:1005B00094030020C00300201C04002010B501207B
:1005C00002F0A2FE002002F09FFE10BD10B504460E
:1005D000204601F0ABFF10BD70B504460D4616462F
:1005E00032462946204601F06BFF70BD10B5044627
:1005F000204601F075FF10BD10B50446204601F0FD
:1006000075FF10BD70B504460D4620462169884728
:100610002560294606A004F063F80C4801680068CC
:10062000401C0A4A1060101D40F8214070BD0000B7
:10063000D7A2B2E1426565704465766963653A2583
:1006400073B3C9B9A62E0D0A00000000B83500200A
:100650002DE9FF4F81B004460D4616460A20B4FB33
:10066000F0FB00FB1B47B4FBF0F04FF00A0BB0FBB4
:10067000FBFE0BFB1E086420B4FBF0F00090781E1C
:10068000DFF89CB05BF820B000985844DFF894B0D5
:100690005BF820304FB1B8F1010F00D15B08B8F121
:1006A000030F00D15B00336001E0002030600A20BE
:1006B000B5FBF0FB00FB1B50DFF86CB05BF820A033
:1006C0000A20B5FBF0F04FF00A0BB0FBFBFE0BFB72
:1006D0001E0C6420B5FBF0F90001B0FBFAF1B9F192
:1006E000010F01D101EB5101BCF1010F01D10A460B
:1006F00009E0BCF1000F05D188004FF0050BB0FBFD
:10070000FBF200E00A4607B9002204980260A1EB60
:10071000020B0E98C0F800B0002005B0BDE8F08FC5
:1007200014810008C43500203081000810B5012173
:10073000022000F027F802A003F0D2FF002010BD35
:10074000D2F4C0D6BDE2C2EBC6F7B3F5CABCBBAFAC
:10075000B3C9B9A62E0D0A00F8B505460C461646D3
:1007600006F10800012202EB440305F11E0200908D
:10077000D15C12F81400331D3246FFF769FF0020E8
:10078000F8BD000030B504460A460021002300BF32
:1007900024E00B190B2B08DD0C3B124850F823000A
:1007A0004000114D45F8210005E00E4850F82300A7
:1007B0000D4D45F82100002A08DA0B4850F82100B9
:1007C00055422841084D45F8210006E0064850F8FA
:1007D00021009040044D45F82100491C0C29D8DB2C
:1007E000002030BDE4800008C435002010B503F0BF
:1007F00017FFFFF7EDFDFFF73DFE01F049FD00F0AB
:10080000F7FBFFF73BFEFFF791FD01F041FE03F020
:100810009BF900F09DF901F0C9F802F017FE02F013
:100820002BF802F0F7FC02F03FFE01F079FF10BD5B
:1008300000BFFEE730B58BB00446254601208DF899
:1008400004002869022808D0402803D0B0F5807F32
:1008500009D105E00120049006E00220049003E0A5
:100860000320049000E000BF00BF287D059068468B
:1008700002F0F2FC0BB030BD10B5024803F0CCF929
:10088000002010BD3508000870B504460D466068AC
:1008900010B9206900F074FE25600020A0600520DA
:1008A0002075054801680068401C034A106002F189
:1008B000080040F8214070BD6025002010B501F00F
:1008C00047FE10BD70B504460D4616463246294611
:1008D000E06803F009F870BD10B50446E06803F065
:1008E00038F810BD10B50446E06803F032F810BDCA
:1008F00010B50446204603F05FF810BD10B504465D
:10090000D4E90112E06803F06DF810BD70B504463B
:100910000D462A46D4E9011003F0B7F870BD10B5B2
:100920000446D4E9011003F09BF810BD10B504464D
:10093000D4E9011003F02BF810BD70B5044604F1A2
:1009400014000FC803F0B2F870BD10B5044660691A
:1009500003F0E4F810BD10B503F028F910BD2DE93F
:10096000F04107460C4666680FE0256807E0002363
:10097000324629463846D7F820C0E0476D1CA168AA
:1009800020680844A842F2DC761CE16860680844EC
:10099000B042EADCBDE8F0812DE9F04107460D46A2
:1009A00016461C4600BF084800680028FBD1256198
:1009B00066612560E068301A401C60602146384658
:1009C000FFF7CDFFBDE8F081A80100202DE9F04739
:1009D00080460D4616469946DDF820A000BF0D481A
:1009E00000680028FBD1A6EB0A00441C0EE02F464D
:1009F00007E00023224639464046D8F820C0E047A9
:100A00007F1C05EB0900B842F3DC641CB442EEDB4A
:100A1000BDE8F087A801002010B50A48006870B949
:100A20000848006858B9302004F092FB0549086076
:100A300000200968086004480249096848600148C4
:100A4000006810BD48010020BD08000808B526A0B8
:100A500003F046FE46E04FF0FF3269462848006842
:100A600005F079FC0746002F3CD100240AE0009AEB
:100A70001168244A52F83400FFF7F2FB064606B923
:100A800005E0641C1F48001F0068A042EFDC00BFA7
:100A90001EBB009841681B4800EBC4004160002564
:100AA0000CE004EB8403184A02EB8302083252F88C
:100AB00025209168009A506888476D1C04EB8401DA
:100AC000114800EB81004068A842EADC55B9009863
:100AD00001680EA003F004FE04E00098016814A071
:100AE00003F0FEFDB7E70000CFFBCFA2D6D0D0C405
:100AF00020546872656164C6F4B6AF2E0D0A00001A
:100B0000380000201C37002070370020436F7265CA
:100B100050726F6373733A2573BBB0CCE2CFC2C31C
:100B2000BBD3D0B6A9D4C4D5DF2E0D0A0000000077
:100B3000436F726550726F6373733AB2BBB4E6D49D
:100B4000DAC3FBCEAA2573BBB0CCE22E0D0A00009F
:100B500010B50821014802F005FF10BD0008014052
:100B600010B5002403E0641C012000F01FFA0821E6
:100B70000C4800F096FD08B1642CF4DB642C0FDA0D
:100B800000BF0821074800F08CFD0028F9D000BF05
:100B90000821044800F085FD0128F9D0012010BD8E
:100BA0000020FCE70008014070B50025002400BFCC
:100BB00018E000BF08210D4800F073FD0028F9D0AF
:100BC000032000F0F3F96006040E0821074800F046
:100BD00068FD012801D144F00104042000F0E6F989
:100BE000681CC5B2082DE4DB204670BD000801403A
:100BF00010B5044600F034F8FFF7B2FF70B1FFF70C
:100C0000D3FF2070FFF7D0FF6070FFF7CDFFA0701B
:100C1000FFF7CAFFE070FFF7C7FF20712078617807
:100C20000844A1780844E17808442179884204D135
:100C300004A003F055FD012010BD05A003F050FDF8
:100C40000020F9E76468743131206F6B2E0D0A00C3
:100C50006468743131206661696C2E0D0A000000F1
:100C600010B5062000F0A2F900220821074800F084
:100C700021FD142000F0B0F901220821034800F002
:100C800019FD032000F092F910BD0000000801409A
:100C900010B54FF4001000F0D1F850B14FF400102F
:100CA00000F00CF80121034801F0F5F90020024999
:100CB000086010BD00540040A801002000F08051E1
:100CC00011B10349086001E0024948607047000023
:100CD000040402400000024021B1026842F0010217
:100CE000026004E002684FF6FE731A40026070472B
:100CF00001684FF6FE721140016000210160416001
:100D00008160C1604B49884208D14A490839496825
:100D100041F00F01474A083A51608AE045491431D1
:100D2000884208D143490839496841F0F001414AF5
:100D3000083A51607DE03F492831884208D13D4959
:100D40000839496841F470613A4A083A516070E0E4
:100D500038493C31884208D136490839496841F45C
:100D60007041344A083A516063E032495031884258
:100D700008D130490839496841F470212D4A083AB0
:100D8000516056E02B496431884208D1294908391D
:100D9000496841F47001274A083A516049E0254901
:100DA0007831884208D123490839496841F0706197
:100DB000204A083A51603CE01F49884206D1011F91
:100DC000096841F00F01021F116032E01A49143125
:100DD000884208D11849091F096841F0F001164AF4
:100DE000121F116025E014492831884208D11249A8
:100DF000091F096841F470610F4A121F116018E061
:100E00000D493C31884208D10B49091F096841F45A
:100E10007041094A121F11600BE0074950318842A6
:100E200007D10549091F096841F47021024A121FC0
:100E3000116070470800024008040240014600208B
:100E4000002201F0805313B1054B1A6801E0054BF5
:100E50001A6802EA01030BB1012000E0002070478C
:100E600000040240000002401AB103680B43036013
:100E700002E003688B430360704710B500220268EC
:100E800047F6F0739A430C6A8B6823430C6923433B
:100E90004C6923438C692343CC6923434C6A234325
:100EA0008C6A23431A430260CB6843600B688360FB
:100EB0004B68C36010BD41607047704710B501F0CA
:100EC00095F9024800F0D8FC10BD00005C36002007
:100ED0000448006800692B2801DD012070470020CC
:100EE000FCE700009004002010B5044800680221CF
:100EF000026A02480068904710BD0000900400207C
:100F000010B5044624B1012C09D0022C0DD10BE000
:100F100007480068007808B9FFF7E6FF05E00448D5
:100F2000006800F05DFC00E000BF00BF002010BDC5
:100F3000D804002070B505460C46072D31D2DFE8F5
:100F400005F004090E1318262B001748006801F05D
:100F500099FF26E01448006802F0A6F821E0124844
:100F6000006801F04BFF1CE00F48006801F067FFCC
:100F700017E00D492068096848600B480068006C5C
:100F8000C26809480168091D0020904709E0064829
:100F900000684068206004E0034800680078206032
:100FA00000BF00BF002070BDF001002001B508495E
:100FB000009808600121074803F03DF800BF04488D
:100FC00000680028FBD10021024803F034F808BD76
:100FD000540000200004004031B5002403E06420E8
:100FE000FFF7E4FF641C00988442F8DB38BD000082
:100FF0002DE9F04163A602F02DFE65490860084620
:10100000006820B963A003F06BFBBDE8F08167A026
:1010100003F066FB04F072FA6AA003F061FB00249F
:1010200011E0002509E05A480068012322462946BC
:10103000076A57480068B8476D1C554800688068C3
:10104000A842F0DC641C52480068C068A042E8DC9A
:101050004F490968C86800EBD0714C10002509E0C1
:101060004B480068012322462946076A4848006821
:10107000B8476D1C464800688068A842F0DC4449C7
:101080000968886800EBD0714D10002409E04048E1
:101090000068012322462946076A3D480068B84790
:1010A000641C3B480068C068A042F0DC00250AE0F0
:1010B0006C0037480068012322462946076A3448F5
:1010C0000068B8476D1C324800688068A842EFDCB1
:1010D00000240CE0C4F1400045002D4800680123C5
:1010E00022462946076A2A480068B847641C2848EF
:1010F0000068C068A042EDDC25480068C16924484A
:101100000068884732A003F0EBFA02F0E3FD36A056
:1011100003F0E6FA43F6B623202232211C48006889
:1011200002F0CCFE334640220C211948006802F040
:10113000EDFE002411E0002509E0154800680023B9
:1011400022462946076A12480068B8476D1C1048B5
:1011500000688068A842F0DC641C0D480068C06824
:10116000A042E8DC17A003F0BBFA4FF47A7003F05A
:1011700071FE22A003F0B4FA002003F0D5FA00BFFC
:1011800043E7000061736B3130303132313233006C
:1011900050080020C3BBD3D0C3FBD7D6CEAA6F6CF8
:1011A0006564B5C4C9E8B1B82E0D0A00BBF1B5C37A
:1011B000CFD4CABEC9E8B1B83A6F6C65642E0D0AC7
:1011C00000000000C7E5B3FDC6C1C4BB2E0D0A0078
:1011D000C4ACC8CFD7D6BFE24153434949B3F5CADF
:1011E000BCBBAF2E0D0A0000CFD4CABED7D6B7FB0A
:1011F000B4AE33C3EB2E0D0A00000000BFAAC6F444
:10120000B6A8CAB1C6F7CBA2D0C2C6C1C4BB2E0D08
:101210000A000000014619B90122034B1A6002E0DE
:101220000022014B1A6070478801002070B5044607
:101230000D462046A1698847256005480168006879
:10124000401C034A106002F1080040F8214070BDC4
:101250008C0100202DE9F04107460C46666815E038
:1012600025680DE032462946204600F05DFD8046A7
:101270004346324629463846D7F820C0E0476D1C21
:10128000A16820680844A842ECDC761CE16860682C
:101290000844B042E4DCBDE8F0812DE9F0410746A6
:1012A0000C46666815E025680DE032462946204662
:1012B00000F0ECFB80464346324629463846D7F8D4
:1012C00020C0E0476D1CA16820680844A842ECDCFF
:1012D000761CE16860680844B042E4DCBDE8F08157
:1012E00002780A60704710B50446E068804710BD78
:1012F00010B504462068804710BD000010B501609D
:10130000044A13681268521C024C2260221D42F8E3
:10131000230010BD9035002010B5044611A3102203
:101320000A211248006802F0F1FD11A320220A21CF
:101330000E48006802F0EAFD0EA330220A210B4895
:10134000006802F0E3FD0DA3202237210748006862
:1013500002F0DCFD0AA3302237210448006802F0C5
:10136000D5FD10BD535441525400000050080020D8
:1013700053455400494E464F000000002020000015
:101380003C2D000010B504460448006810B904A0C4
:1013900003F0A6F901200149086010BD8C07002068
:1013A000D3CECFB7D0C5CFA22E0D0A0010B50446BC
:1013B00011A310220A211248006802F0A7FD11A310
:1013C00020220A210E48006802F0A0FD0EA3302260
:1013D0000A210B48006802F099FD0DA31022372165
:1013E0000748006802F092FD0AA320223721044832
:1013F000006802F08BFD10BD5354415254000000B0
:101400005008002053455400494E464F000000004C
:10141000202000003C2D000010B504460448006860
:1014200010B904A003F05CF901200149086010BD67
:1014300088070020D3CECFB7C9E8D6C32E0D0A0047
:1014400038B504462248006868B940208023024627
:10145000002100901F480068FFF7B8FA1C48006898
:10146000401C1B4908601C48006868B1402080236C
:1014700002460021009017480068FFF7A7FA1648B7
:101480000068401E1449086014A310220A21114864
:10149000006802F03BFD13A320220A210D480068DA
:1014A00002F034FD10A330220A210A48006802F03D
:1014B0002DFD0FA3302237210648006802F026FDDB
:1014C0000CA3102237210348006802F01FFD38BD2D
:1014D000DC04002050080020E00400205354415256
:1014E0005400000053455400494E464F0000000090
:1014F000202000003C2D00001CB504461448006864
:1015000020BB13480068401C114908600120FFF708
:10151000F7FC02200F49086001A84FF0FF330622B4
:10152000032100900C48006804F065FA019800F06F
:10153000010018B9019800F0020018B107A004F0EA
:10154000C3FD02E00AA004F0BFFD00BF1CBD000007
:10155000E0040020AC0700202C000020B7B5BBD869
:10156000B2CBB5A5CFDFB3CC21200D0A000000001F
:10157000CAC2BCFEB4EDCEF3A3A10D0A0000000068
:1015800010B50446204600F0B7FF10BD2DE9F0412C
:10159000024600250026002000230024002791F8A1
:1015A00003C00CF00F0591F803C00CF0100CBCF157
:1015B000000F03D091F802C04CEA050591F800C075
:1015C000BCF1000F31D0146800202BE04FF0010C6B
:1015D0000CFA00F3B1F800C00CEA03069E4220D1D9
:1015E00083004FF00F0C0CFA03F7BC4305FA03FC21
:1015F0004CEA040491F803C0BCF1280F06D14FF067
:10160000010C0CFA00FCC2F814C00AE091F803C007
:10161000BCF1480F05D14FF0010C0CFA00FCC2F8E8
:1016200010C0401C0828D1D31460B1F800C0BCF130
:10163000FF0F34DD546800202EE000F1080C4FF05D
:10164000010808FA0CF3B1F800C00CEA03069E4248
:1016500021D183004FF00F0C0CFA03F7BC4305FABD
:1016600003FC4CEA040491F803C0BCF1280F05D137
:1016700000F1080C08FA0CF8C2F8148091F803C0C5
:10168000BCF1480F07D100F1080C4FF0010808FA2F
:101690000CF8C2F81080401C0828CED35460BDE876
:1016A000F0810246002093680B400BB1012000E05E
:1016B000002070470AB1016100E0416170470000FD
:1016C00038B504462948006800283ED040208023D1
:1016D00002460021009026480068FFF777F923486A
:1016E0000068401E21490860224B18220021204832
:1016F000006802F0CFFB204B102214211C48006828
:1017000002F0C8FB1D4B102270211948006802F03E
:10171000C1FB1B4B30220C211548006802F0BAFBBC
:10172000184B302264211248006802F0B3FB164BBC
:10173000402204210E48006802F0ACFB134B40220B
:101740006C210B48006802F0A5FB302003464022C4
:101750002821009006480068FFF738F90C4B40221A
:1017600028210348006802F095FB38BDDC04002006
:1017700050080020E4040020040500202405002077
:101780004405002064050020A4050020C4050020B5
:101790003C06002010B5044601A002F0A1FF10BDD8
:1017A000D3C0D4B6B2BBBBE1B5BDB4EF2EB7F1D454
:1017B000F2B4EDCEF32E0D0A0000000070470000D9
:1017C00010B500200449086001F08CF9012103489C
:1017D000006804F087F910BDAC0700202C00002041
:1017E00038B504462078A0B1002020700AA002F08D
:1017F00077FF402080230246002100900B480068BC
:10180000FFF7E4F82069416888470948006805F057
:10181000D7F9002038BD0000D3CECFB7BDF8C8EB54
:10182000D4CBD0D0D7B4CCAC2E0D0A0050080020B9
:1018300034000020704710B50120FFF761FB10BD98
:1018400010B504460AA3102223210A48006802F0BA
:101850005DFB10223A2107486368006802F02EFB06
:1018600010225C210348A368006802F027FB10BD2A
:1018700048493A005008002010B504462078012855
:1018800001D001202070D4E90110884201DDA06858
:1018900060600020A0600B4B282232210A480068BB
:1018A00002F0F8FA09A328220A210748006802F08A
:1018B0002DFB08A3282256210348006802F026FBCE
:1018C000002010BD980400205008002047414D45DD
:1018D000000000004F56455200000000704710B550
:1018E0000020FFF70DFB10BD274B402200212748A9
:1018F000006802F0CFFA002411E0002509E0234837
:101900000068002322462946066A20480068B0473E
:101910006D1C1E4800688068A842F0DC641C1B48EF
:101920000068C068A042E8DC19A002F0D9FE4FF0C0
:10193000FF311C48006805F06CF94FF4967005F013
:1019400006FB20E0184800680078B0B91648006827
:101950008068401C144909688860134A126810693D
:10196000114A12681269116888470F480068FFF72A
:1019700067FF0A2005F0EBFA05E04FF0FF31094858
:10198000006805F046F9DDE7B804002050080020A3
:1019900047616D6520546872656164C6F4B6AF2E08
:1019A0000D0A000034000020D804002010B5FEF716
:1019B000DFFD00F067F80149086010BDD804002081
:1019C00070B50546281D00F025F904460748006853
:1019D000007C012804D1002004490968087403E050
:1019E00014B1201F0149086070BD0000900700205D
:1019F00010B50446204602F0A1FE10BD02460021AB
:101A000000E0891C02F11E00405C0028F9D10B4661
:101A100001EBD370401070470246002002E0135CD7
:101A20000B54401C135C002BF9D10B54704710B5BC
:101A30000446204602F0B4FE10BD000070B5054615
:101A4000281D00F0D9F804461CB1201F0349086086
:101A500003E0012001490968087470BD9007002067
:101A600070B504460D4603480068294602692046C1
:101A7000904770BDC001002010B50446204602F01A
:101A8000A7FE10BD10B502F0BBFE10BDF0B50346B9
:101A90000C46D3E90607C5191868261A5868111AA2
:101AA0000846CF1701EB5777FF10D3F808C007FBA4
:101AB0000C673D44CF1701EB5777FF10A1EBC7012F
:101AC000287801278F40384008B10120F0BD002060
:101AD000FCE70000F0B58DB004463022224901A891
:101AE000FEF7ACFB6069451E642195FBF1F12846C9
:101AF000EA1705EB9272C1EBA2014FF4C87295FB95
:101B0000F2F28F186069C11700EB91718910A0EB98
:101B1000810191B96422616991FBF2F302FB131117
:101B200031B99200616991FBF2F302FB131121B903
:101B30002169022901DD012600E0002640F26D1036
:101B400005FB00712069401E01AA52F820000844DC
:101B5000E16808440644072096FBF0F100FB1160A1
:101B6000A0610DB0F0BD0000B478000810B50446C7
:101B7000204602F077FE10BD70B5044600256B1EAE
:101B80002C2221460548006804F098FD05461DB149
:101B9000294603A004F098FA002070BD2800002018
:101BA000CAFDBEDDBDD3CAD5B3F6B4ED2CB4EDCEBF
:101BB000F3B4FAC2EB3A203078256C780A000000C2
:101BC00010B50446204602F065FE10BD70B505460E
:101BD000281D00F02DF8044606480068007C012806
:101BE00003D1002003490968087414B1201F01497A
:101BF000086070BD9007002001464868401C08B985
:101C00000020704702484A6850F82200F9E70000B7
:101C10007436002001460868401C08B9002070474F
:101C200002480A6850F82200F9E7000074360020E4
:101C300001468868401C08B90020704702488A683D
:101C400050F82200F9E70000743600202DE9F04139
:101C500007460D46324897FBF0F697FBF0F100FB84
:101C600011784FF4616098FBF0F0A8604FF4616068
:101C700098FBF0F100FB11803C2190FBF1F06860D3
:101C80004FF4616098FBF0F100FB11803C2190FB68
:101C9000F1F201FB1200286040F2B2740EE020461F
:101CA000E11704EB91718910A4EB810111B94FF494
:101CB000B77101E040F26D11761A641CE11704EB74
:101CC00091718910A4EB810111B94FF4B77101E052
:101CD00040F26D11B142E2DD6C616869C11700EB41
:101CE00091718910A0EB810111B91D200D49486047
:101CF000012405E0601E0B4951F82000361A641CCF
:101D0000601E084951F82000B042F3DD1C204860F5
:101D10002C61701CE8602846FFF7DCFEBDE8F0810E
:101D20008051010058000020F0B503460C461546CE
:101D30001A6A1868261A5868291A082901DA3244DA
:101D400002E006F108000244082900DB0839177890
:101D50000120884007400FB10120F0BD0020FCE7C2
:101D600010B501460869801E0861002805DC086975
:101D70000C3008614869401E48616423486990FB43
:101D8000F3F04A69D31702EB9373C0EBA3004FF44F
:101D9000C87492FBF4F3034440F26F140869604383
:101DA0000C2490FBF4F01844CB68034440F26D140B
:101DB00002FB0430084BC01A00EB40008B6803EBB9
:101DC000C000C0EB00104B6803EB8000C0EB0010BC
:101DD0000B6803EB800010BD8BFA0A00084902680B
:101DE0000A6042684A60096831B90549496819B909
:101DF0000121044A116002E00021024A116070478B
:101E0000B407002030080020014902680A607047CA
:101E1000B007002010B504461C2221463848FEF7C2
:101E20000DFA38480068002868D037A3102228210E
:101E30003648006802F06AF8314880680A280FDAEC
:101E40000023102228213148006802F037F82C487E
:101E50001022302183682D48006802F02FF807E037
:101E600027480022282183682848006802F026F8C5
:101E700027A3102239212548006802F047F820489E
:101E800040680A280FDA0023102242211F48006808
:101E900002F014F81A4810224A2143681B480068CF
:101EA00002F00CF807E01648102242214368174858
:101EB000006802F003F816A31022532113480068AB
:101EC00002F024F80E4800680A280FDA00231022D6
:101ED0005D210E48006801F0F1FF094810226521DC
:101EE00003680A48006801F0E9FF07E0044810228F
:101EF0005D2103680548006801F0E0FF10BD0000A7
:101F0000383800203008002020090900500800203F
:101F10003A00000010B504461C4B182200211C4852
:101F2000006801F0B7FF1B4B10221421184800680D
:101F300001F0B0FF184B102270211548006801F025
:101F4000A9FF164B30220C211148006801F0A2FFB6
:101F5000134B302264210E48006801F09BFF114BA7
:101F6000402228210A48006801F094FF0E4B4022CD
:101F700004210748006801F08DFF0C4B40226C21C2
:101F80000348006801F086FF10BD0000E404002053
:101F900050080020040500202405002044050020EE
:101FA0006405002084050020A4050020C40500204D
:101FB00010B5044601A002F093FB10BDD3C0D4B607
:101FC000B2BBBBE1B5BDB4EF2EB7F1D4F2B4EDCEE8
:101FD000F32E0D0A0000000010B50446204600F064
:101FE000ABFA10BD10B50446204600F0ABFA10BDA8
:101FF00010B50446204600F085FA10BD70B50446C1
:102000000D4620462169884725600548016800681B
:10201000401C034A1060101D40F8214070BD0000B4
:102020005425002070B5024600240025002300201E
:10203000958A138B1B0445EA030626F07F4404EAC5
:1020400001068E4201D1012000E0002070BD21B1C7
:10205000028842F00102028004E002884FF6FE731B
:102060001A400280704721B1828842F40062828067
:1020700004E082884FF2FF731A408280704721B1DA
:10208000028842F48072028004E002884FF6FF6307
:102090001A400280704721B1028842F40072028027
:1020A00004E002884FF6FF531A40028070470CB5D7
:1020B0000246002000230193009300920B0F01932E
:1020C00021F07F41019B1BB1009B1433009303E07F
:1020D000090C009B18330093009B1B680B400BB14D
:1020E000012000E000200CBD2DE9F04385B004463E
:1020F0000D460026B1460427DFF8CC80A6884FF6AF
:10210000C0700640684601F005F9DDF808802F48E8
:10211000B8FBF0F01FFA80F946EA0906A68020888D
:102120004FF6FE7108402080002629492868884221
:102130000CD828684000B8FBF0F087B2042F00DA12
:1021400004273E4309F10100208427E0E8884BF68C
:10215000FF71884206D1286800EB4000B8FBF0F020
:1021600087B209E0286800EBC00101EB0010B8FB62
:10217000F0F087B247F48047C7F30B0008B947F087
:10218000010747F4004006434FF4967009FB00F046
:102190004FF47A7190FBF1F0401C2084A6832088D4
:1021A00040F00100208026884FF6F5300640A888D0
:1021B0006989084306432680A88929890843208124
:1021C00005B0BDE8F083000000127A0040420F0025
:1021D000A086010012B141F0010102E04FF6FE734A
:1021E00019400182704701827047000010B506A0B7
:1021F000FFF7E6FC0649086008460068012102690D
:1022000003480068904710BD5748495445000000F6
:102210004804002010B506A0FFF7D2FC064908606C
:10222000084600680021026903480068904710BD15
:1022300057484954450000004804002038B504467A
:102240003020034640222821009006480068FEF70F
:10225000BDFB054B402228210248006801F01AFE10
:1022600038BD000050080020F006002010B50446DC
:102270000448006810B904A002F032FA01200149B4
:10228000086010BD84070020D0C5CFA22E0D0A0023
:1022900010B502F049FB10BD10B500230A22302111
:1022A00029A004F0C7F92B4908600846006818B156
:1022B00029A003F009FF02E02DA003F005FF012192
:1022C00031A003F085FB334908600846006818B167
:1022D00031A003F0F9FE02E034A003F0F5FE002285
:1022E000012137A004F044FC384908600846006822
:1022F00018B137A003F0E8FE02E03CA003F0E4FED2
:102300000022012140A004F033FC41490860084646
:10231000006818B13FA003F0D7FE02E043A003F02D
:10232000D3FE00220A2147A003F0ECFF49490860D0
:102330000846006818B148A003F0C6FE02E04DA0B0
:1023400003F0C2FE002010BD5175657565496E70C1
:102350007574000028000020CFFBCFA2B6D3C1D0F7
:10236000B4B4BDA8B3C9B9A6A3A10A0A000000006D
:10237000CFFBCFA2B6D3C1D0B4B4BDA8CAA7B0DC3E
:10238000A3A10A0A000000004261636B4576656EF6
:10239000740000002C000020CAC2BCFEB4B4BDA86A
:1023A000B3C9B9A6A3A10D0A00000000CAC2BCFEB1
:1023B000B4B4BDA8CAA7B0DCA3A10D0A00000000F8
:1023C000506C6179657253656D000000300000202B
:1023D000B2A5B7C5C6F7D0C5BAC5C1BFB4B4BDA80C
:1023E000B3C9B9A6A3A10A0A00000000B2A5B7C5E7
:1023F000C6F7D0C5BAC5C1BFB4B4BDA8CAA7B0DCC2
:10240000A3A10A0A0000000047616D6553656D00D5
:1024100034000020D3CECFB7D0C5BAC5C1BFB4B445
:10242000BDA8B3C9B9A6A3A10A0A0000D3CECFB7ED
:10243000D0C5BAC5C1BFB4B4BDA8CAA7B0DCA3A1FA
:102440000A0A00004D736743656E747265724D62CF
:102450000000000038000020CFFBCFA2D6D0D0C4AF
:10246000D3CACFE4B4B4BDA8B3C9B9A6A3A10A0A1C
:1024700000000000CFFBCFA2D6D0D0C4D3CACFE497
:10248000B4B4BDA8CAA7B0DCA3A10A0A000000002A
:1024900010B5FEF70BF803A002F014FA0349086028
:1024A00010BD0000686F6D650000000090070020FF
:1024B0000249096801610149086070476001002014
:1024C00070B505460C4616460448B0FBF4F0441EB1
:1024D000324621462846FEF7F5F970BD4019010045
:1024E00010B504462046FEF7F7F910BD10B50446B6
:1024F0002046FEF7F7F910BD10B504462046FEF75A
:10250000F7F910BD10B504462046FEF7F7F910BDE7
:1025100070B504460D4629462046FEF7F7F970BD12
:1025200010B504462046FEF7FAF910BD10B5044672
:102530002046FEF7FBF910BD10B504462046FEF715
:10254000FCF910BD10B504462046FEF7FEF910BD9B
:1025500010B5FEF700FA10BD70B504460D462946C9
:102560002046FFF7D5FF70BD10B504462046FFF7A3
:10257000D7FF10BD70B504460D462046E168884778
:102580002560054801680068401C034A1060101D62
:1025900040F8214070BD00003C2500208CB04EA0CA
:1025A00002F09EF897E05148006818B95048514928
:1025B00008600EE04D480068012803D14E484D499F
:1025C000086006E049480068022802D14B484949A2
:1025D000086001A8FFF7D0FA00286DD105980128FE
:1025E0000ED19DF8080001280AD1069840B9444848
:1025F0004449086044480068401C434908605BE067
:10260000059802280ED19DF8080001280AD10698E5
:1026100040B93E483B4908603B480068401C3A4985
:10262000086049E0059803280ED19DF808000128AC
:102630000AD1069840B936483249086032480068E5
:10264000401C3149086037E0059801280FD19DF8FA
:10265000080001280BD10698032808D12D482949E4
:10266000086029480068401C2749086024E0059854
:1026700002280FD19DF8080001280BD106980328E5
:1026800008D125481F4908601F480068401C1E49A2
:10269000086011E0059803280ED19DF80800012874
:1026A0000AD10698032807D11C4816490860164825
:1026B0000068401C144908601348006800280ADDBF
:1026C0001048006801680B48006888470E48006899
:1026D000401E0D49086066E74C6F676963205468C7
:1026E00072656164C6F4B6AF2E0D0A00AC07002017
:1026F000EC07002020080020BC070020D4070020A1
:10270000040800201C0800204C08002008080020B5
:102710000C080020100800201408002018080020D1
:1027200010B50BA001F0DCFF0E480F4908600F4800
:10273000014602680EA0904711480146026811A0A8
:1027400090470F481249026812A0904710BD000040
:10275000D2B5CEF1D7D3CFB5CDB3B3F5CABCBBAFED
:102760002E0D0A00EC07002020080020240800207D
:10277000706C617965725F746F706963000000004E
:10278000340800206D656E755F746F7069630000BA
:10279000400800207274635F746F7069630000000A
:1027A00000BFFEE710B5002000F09CF910BD10B589
:1027B000002000F097F910BD10B5044604480068E9
:1027C00020B104490248006803F042FE10BD000039
:1027D000380000209C07002010B5012000F082F98D
:1027E00010BD10B5012000F07DF910BD10B502201C
:1027F00000F078F910BD10B5022000F073F910BD9B
:1028000012A001F06DFF4FF4967004F0A0FB1BE0E6
:1028100013480068007C30B91148006841691048CD
:102820000068884705E00E48006881690C48006828
:1028300088470C4800680C4908600C4800684860EC
:102840000B4801680B488847E2E700004D656E754C
:1028500020546872656164C6F4B6AF2E0D0A00009C
:1028600090070020DC04002094070020E0040020F2
:10287000A40700209C07002010B503A001F030FF42
:1028800006A000F0D9FE10BD4D656E75205468722B
:1028900065616420496E69742E0D0A006D656E7560
:1028A0005F746F7069630000704708B54FF4A060F3
:1028B00000F048F825208DF8000003208DF8010075
:1028C00001208DF802008DF80300684600F002F840
:1028D00008BD000070B5002100230F22C47804B3A6
:1028E000154C246804F4E064C4F5E064210AC1F1E5
:1028F0000403CA40447804FA03F184781440214365
:1029000009010E4C0678A155047804F01F05012436
:10291000AC4005786D11AD0005F1E025C5F800412A
:1029200009E0047804F01F050124AC40044D06784A
:10293000761145F8264070BD0CED00E000E400E0A3
:1029400080E100E002490143024A11607047000043
:102950000000FA050CED00E004490A680968491C0A
:10296000024B1960191D41F8220070477036002093
:1029700070B504460D4600BF4FF400311C48FFF708
:1029800096FB0028F8D101211948FFF778FB00BF1A
:1029900018491748FFF746FB0028F9D00022782194
:1029A0001348FFF717FC00BF13491148FFF73AFB24
:1029B0000028F9D021460E48FFF715FC00BF0E494C
:1029C000891E0B48FFF72EFB0028F8D0294608483F
:1029D000FFF709FC00BF0849891C0548FFF722FBE7
:1029E0000028F8D001210248FFF755FB70BD000018
:1029F00000540040010003008200070010B50446A7
:102A000021460020FFF7B4FF10BD10B50446214653
:102A10004020FFF7ADFF10BD10B5044602F07EFD6B
:102A200010BD10B504466169606802F0C3FD10BDB9
:102A30002DE9F04104460D461F46D4F804C0A068B5
:102A4000A84206DD002D04DDE068904201DD002A89
:102A500003DC4FF0FF30BDE8F08110464FEAE2782A
:102A600002EB58784FEAE8030CEBC310411910460B
:102A70004FEAE27802EB58784FEAE808A2EBC80682
:102A800047B108784FF0010808FA06F840EA080054
:102A9000087007E091F800800120B04028EA0008A3
:102AA00081F800800020D6E770B504460D46FDF79A
:102AB00049FC09A0FFF75AF8094908600846006870
:102AC000C46108460068056208460068416A044817
:102AD00000688847002070BD693263310000000043
:102AE000A401002010B5044624B1012C07D0022C0B
:102AF0000FD109E008480068FEF762FF0AE00648C7
:102B00000068FFF763F805E003480068FEF796FFEA
:102B100000E000BF00BF10BD9007002070B5044664
:102B20000D462560201DFFF717FF05480168006866
:102B3000401C034A1060101D40F8214070BD000089
:102B4000C4360020014908627047000000000E42B0
:102B50000246D0680A2802D14FF0FF307047D36890
:102B6000581CD06002F1180040F823100020F5E74F
:102B700038B504462948006800283ED0402080230C
:102B800002460021009026480068FDF71FFF2348F9
:102B90000068401E21490860224B1822002120486D
:102BA000006801F077F9204B102214211C480068BE
:102BB00001F070F91D4B102270211948006801F0D6
:102BC00069F91B4B30220C211548006801F062F9AD
:102BD000184B302264211248006801F05BF9164B53
:102BE000402204210E48006801F054F9134B4022A2
:102BF0006C210B48006801F04DF93020034640225B
:102C00002821009006480068FDF7E0FE0C4B3822B2
:102C100030210348006801F03DF938BDDC04002094
:102C200050080020E40400200405002024050020B2
:102C30004405002064050020A4050020C4050020F0
:102C4000780600201CB504461E480068002838D1CC
:102C5000402080230246002100901B480068FDF7B9
:102C6000B5FE18480068401C1649086017A001F01E
:102C700037FD1AA3302200211348006801F046F9FD
:102C800000210846FEF756F901201749086001A8FF
:102C90004FF0FF330622032100901448006802F031
:102CA000AAFE019800F0010018B9019800F0020096
:102CB00018B10FA003F008FA02E012A003F004FA22
:102CC00000BF1CBDDC04002050080020BFAACABC05
:102CD000B2A5B7C5B8E8C7FA2E0D0A00506C6179E5
:102CE00065722E2E2E000000AC0700202C00002064
:102CF000B7B5BBD8B2CBB5A5CFDFB3CC21200D0A79
:102D000000000000CAC2BCFEB4EDCEF3A3A10D0AC0
:102D10000000000010B508480068401E0649086021
:102D200008460068002801DA0020086002490420F3
:102D3000FEF700F910BD0000A807002010B50249F9
:102D40000220FEF7F7F810BDA807002010B51B48B9
:102D50001B4908601B4848601B4888601B48C860C6
:102D60001B4808611B481C4908601C4848601C48F7
:102D7000886013481B490864174848641A49194871
:102D8000FFF7E6FE19491748FFF7E2FE1849154814
:102D9000FFF7DEFE17491348FFF7DAFE1649114820
:102DA000FFF7D6FE0F4800F04BF901200D490870DF
:102DB000084600F0BFF80B4810BD0000BD4C0008ED
:102DC000F4350020ED4C0008654C00088D4C0008DF
:102DD000054D00082F4E0008083600200B4E000855
:102DE000394E0008143600204C8100085E8300082C
:102DF00070850008828700089489000838B5044669
:102E0000A068012803DDA068401EA06001E0E06822
:102E1000A06000202061A168491E04F1180252F848
:102E20002100616C6A464B680121984700986061F7
:102E3000207810B1204600F025F8002038BD38B5C4
:102E40000446D4E90201884203DAA068401CA0606D
:102E500001E00120A06000202061A168491E04F16A
:102E6000180252F82100616C6A464B6801219847AC
:102E700000986061207810B1204600F003F800202F
:102E800038BD000010B50446207808B1002020703D
:102E90000248006803F094FE002010BD30000020BE
:102EA00010B504460448006820B10449024800688F
:102EB00003F0CEFA10BD000038000020F801002019
:102EC00010B508490120FEF735F80020FFF70AFE8B
:102ED00000200549086002210448006802F002FE53
:102EE00010BD0000A8070020AC0700202C00002027
:102EF00010B50B48006838B90AA001F0F1FB0C4985
:102F00000120FEF717F80AE005480068012806D1FD
:102F100005A001F0E5FB06490020FEF70BF810BD07
:102F2000B0070020D4DDCDA3B2A5B7C52E0D0A0091
:102F3000A807002070B586B0044600250EE004F115
:102F4000180151F82500616C6A464B6800219847CA
:102F50006A46294619A001F0C3FB6D1CE068A8422F
:102F6000EDDC207818B917A001F0BAFB02E01AA036
:102F700001F0B6FBA168491E04F1180252F82100C5
:102F8000616C6A464B6800219847694617A001F0BA
:102F9000A7FB17A001F0A4FB6421206948436169E5
:102FA00090FBF1F6314615A0626801F099FB1AA07A
:102FB00001F096FB002006B070BD000025643A25A4
:102FC000730D0A003C2D2D2D2D2D20D5FDD4DAB208
:102FD000A5B7C53A000000003C2D2D2D2D2D20D485
:102FE000DDCDA3B2A5B7C53A0000000025730000EF
:102FF000202D2D2D2D3E0D0A00000000B2A5B7C5D5
:10300000BDF8B6C83A2564252520D2F4C1BF3A25BB
:103010006425250D0A2E00002A2A2A2A2A2A2A2A6D
:103020002A2A2A2A2A2A2A2A2A2A2A2A2A2A2A2A00
:103030002A2A2A2A2A2A2A2A2A2A2A0D0A000000AB
:1030400038B504461748006810B14FF0FF3038BD5E
:10305000E06810B94FF0FF30F9E7616C086880470D
:1030600001202070322060600120A06000202061DB
:10307000A168491E04F1180252F82100616C6A46E9
:103080004B680121984700986061216C086880476F
:10309000206C211DC2680020904701200149086072
:1030A0000020D4E70402002001460878012801D05E
:1030B000012008700020704710B508480068401CC7
:1030C0000649086008460068642801DD642008603D
:1030D00002490420FDF72EFF10BD0000A8070020C4
:1030E00010B502490320FDF725FF10BDA8070020F9
:1030F00094B036A001F0F4FA4FF0FF31394800687F
:1031000003F087FD4FF4967003F021FF5DE0364831
:103110000068007800283ED1334800684069324991
:1031200009680969441A142C00DD14242E4A126817
:1031300011692D4A12689268521E2B4B1B68183376
:1031400053F82200284A1268526C234695686A4652
:10315000A8470446002C0DDD23480068006C21467A
:1031600002696846904720480068006920441E496B
:10317000096808611C48006800691B4909684969B9
:10318000884203DB18480068FFF759FE16480068BC
:10319000FFF7D0FE10E014490968096C8868804781
:1031A00012A001F09DFA4FF0FF310E48006803F0C5
:1031B00030FD11A002F088FF0B480068007812492A
:1031C00008601248016812488847A0E7506C61798E
:1031D000657220546872656164C6F4B6AF2E0D0A3C
:1031E0000000000030000020F0010020B2A5B7C5AB
:1031F000CDA3D6B92E0D0A00BBF1B5C3B2A5B7C594
:10320000D0C5BAC5C1BF2E00F401002000020020C5
:10321000F801002010B505A001F062FAFFF796FD55
:103220000849086008A000F007FA10BD506C6179E9
:1032300065722054687265616420496E69742E0D50
:103240000A000000F0010020706C617965725F7403
:103250006F7069630000000070B5044600252C22E1
:1032600021460648006803F0BAFA05461DB1294612
:1032700003A002F029FF002070BD000028000020FC
:10328000CAFDBEDDB2BBC4DCB7A2CBCDB5BDCFFBA2
:10329000CFA2B6D3C1D021B4EDCEF3B4FAC2EB3A8B
:1032A00020256C780A00000029B1064A52690243C1
:1032B000044B5A6104E0034A52698243014B5A614C
:1032C000704700000010024029B1064AD26902434B
:1032D000044BDA6104E0034AD2698243014BDA61AC
:1032E000704700000010024029B1064A926902436B
:1032F000044B9A6104E0034A92698243014B9A614C
:10330000704700000010024001490860704700004B
:103310004004424230B500210022002400232D4DFC
:103320006D6805F00C0121B1042905D0082923D1CD
:1033300005E0294D056022E0274D05601FE0254D81
:103340006D6805F47012234D6D6805F48034022514
:1033500005EB92421CB9214D554305600BE01D4D14
:103360006D6805F400351DB11C4D5543056002E044
:10337000194D5543056002E0174D056000BF00BFC1
:10338000144D6D6805F0F0010909154D6B5C056879
:10339000DD4045600F4D6D6805F4E061090A104D90
:1033A0006B5C4568DD4085600A4D6D6805F46051D1
:1033B000C90A0B4D6B5C4568DD40C560054D6D6805
:1033C00005F44041890B074D6B5CC568B5FBF3F50F
:1033D000056130BD0010024000127A0000093D0076
:1033E000140000202400002010B501460022002314
:1033F00000204A11012A02D1094C236806E0022A62
:1034000002D1074C236A01E0054C636A01F01F02F8
:10341000012494401C400CB1012000E0002010BDAC
:1034200000100240014908607047000080044242D9
:1034300001490860704700003C0442420249096AA1
:103440000143014A116270470010024010B54FF469
:10345000FD600749486101200861C860886000205C
:1034600048600860084600F037F800F0FFF910BD2A
:103470002025002070B5044600F05AF80546214684
:103480002846FEF7E3FB70BD10B50446044800680B
:1034900020B104490248006802F0DAFF10BD0000C4
:1034A000380000208800002010B503A001F018F9B2
:1034B00006A000F0C1F810BD525443205468726554
:1034C000616420496E69742E0D0A00007274635F96
:1034D000746F70696300000070B5044600F0CAF9AB
:1034E00000F088F82046FEF73BFC054600F064F843
:1034F00000F080F870BD0000024909888143014A4C
:1035000011807047042800400348008840F01000F4
:1035100001490880704700000428004003480088E3
:103520004FF6EF71084001490880704704280040B9
:10353000002103480188001F008841EA00407047CD
:103540001C28004001460020064A12880A40D0B2DA
:10355000044A121F12880A4012B108B1012000E08B
:10356000002070470428004010B50120FFF7EAFF53
:1035700058B10120FFF7C0FF00F03CF80348FFF707
:1035800079FF034801680348884710BD20250020C3
:10359000900000208800002029B1064A12880243CA
:1035A000044B1A8004E0034A12888243014B1A80BC
:1035B000704700000028004000B50246FFF7A4FF56
:1035C000100C03490880091D0A80FFF7A7FF00BD02
:1035D0001828004000B50246FFF796FFC2F30340EB
:1035E00003490880091D0A80FFF798FF00BD00000D
:1035F0000828004000BF0348008800F02000002891
:10360000F9D0704704280040074800884FF6F7714A
:1036100008400549088000BF0348008800F0080002
:103620000028F9D070470000042800400920014913
:1036300008607047F803002070B5044600250FE0CD
:10364000194951F835002146FCF70AFE064636B9FD
:10365000214616A001F044F84FF0FF3070BD6D1CFC
:103660001148001F0068A842EADC214619A001F0B9
:1036700037F80D48001F0168001D40F83140001F59
:103680000068401C0849091F08601B48006800EBDF
:1036900080011948001D40F82140001F0068401CAF
:1036A000154908600020D9E71C370020526567697A
:1036B000737465724D6573736167653AD2D1BEAD3F
:1036C000B4E6D4DAC3FBCEAA2573BBB0CCE22E0D90
:1036D0000A00000052656769737465724D65737303
:1036E0006167653AD7A2B2E1C3FBCEAA2573BBB02E
:1036F000CCE22E0D0A0000006C3700202DE9F041CD
:1037000006460F46002409E01C4951F834003146B2
:10371000FCF7A6FD054605B905E0641C1748001F27
:103720000068A042F0DC00BF0DBB314614A000F0E1
:10373000D7FF04EB84011F4800EB8100083004EB45
:1037400084021C4901EB8201496840F8217004EBB6
:103750008401184800EB81004068401C04EB84029F
:10376000144901EB820148600020BDE8F081314638
:1037700011A000F0B5FF4FF0FF30F6E71C37002036
:1037800052656769737465725375627363726962B7
:1037900065723ABCD3C8EB73756273637269626514
:1037A00072B5BDBBB0CCE22573B5C4C1B4B1ED2ECA
:1037B0000D0A0000703700205265676973746572E6
:1037C000537562736372696265723AB2BBB4E6D4D0
:1037D000DAC3FBB3C6CEAA3A2573B5C4BBB0CCE2FC
:1037E0002CC7EBCFC8D7A2B2E1BBB0CCE22E0D0AFA
:1037F0000000000010B504460D48006B092800DDEC
:1038000010BD6168E161E06860612169A1610848FB
:10381000016B006B401C064A106302F1080040F87F
:1038200021400838016B03A000F05AFF00BFE7E712
:103830004C040020D7A2B2E1B5DA2564B8F6524FA5
:103840004C45B3C9B9A62E0D0A00000008B50320E7
:103850008DF8000001208DF8030003208DF8010091
:103860008DF802006846FFF735F808BD10B5FFF780
:10387000EDFF10BD10B501214FF0C050FFF724FD42
:103880000120FFF75FF9FCF799FE0120FFF7CAFD61
:1038900000BF6120FFF7A8FD0028FAD04FF40070A8
:1038A000FFF7CCFD0120FFF7C3FDFFF7ADFEFFF7EB
:1038B000A1FE01210846FFF76FFEFFF79BFEFFF711
:1038C00023FE49F63F40FFF785FEFFF793FEFFF723
:1038D00025FE10BD10B504462069804710BD10B507
:1038E00004466068804710BD70B588B006460C4637
:1038F000154601210420FFF7E7FC40F2E730ADF860
:103900001800A0B2ADF814000020ADF81A00ADF810
:1039100016008DF81C0005A9304600F00DFC602053
:10392000ADF804000220ADF80C000120ADF806004F
:10393000A8B2ADF80A0001A9304600F0A3FB0821A7
:10394000304600F0EFFB0121304600F074FB08B078
:1039500070BD10B5044600224FF483712046FFF776
:10396000C3FF10BD38B505460C4601210420FFF702
:10397000BBFC14208DF80300A0B2ADF800000320BA
:103980008DF8020069462846FDF700FE38BD38B5BF
:1039900005460C4601210820FFF7A6FCA0B2ADF8B1
:1039A000000018208DF8030003208DF802006946FE
:1039B0002846FDF7EBFD38BD38B50446012104204B
:1039C000FFF792FC48208DF80300ADF8004003207B
:1039D0008DF8020069460248FDF7D8FD38BD0000A9
:1039E0000008014070B586B006460C461546012118
:1039F0004805FFF769FC01210820FFF775FC1C2032
:103A00008DF8170044EA050080B2ADF814000320D9
:103A10008DF8160005A93046FDF7B8FD4FF480601B
:103A2000ADF80E000001ADF810000B4801904BF608
:103A3000FF70ADF80A000020ADF808003020ADF8A6
:103A40000C0001A90548FEF74FFB01210348FEF7D2
:103A5000FEFA06B070BD0000801A06000054004057
:103A600038B505460C4601210C20FFF73DFC10201F
:103A70008DF80300A0B2ADF8000003208DF802001D
:103A800069462846FDF782FD38BD22B1012A04D0DF
:103A9000022A08D103E0416106E0016104E0C36845
:103AA0004B40C36000E000BF00BF7047F0B58DB071
:103AB00007460C4615461E4601210846FFF7F4FB53
:103AC0003846FDF715F905961020049000200C905B
:103AD000039509908020079000200A900294089096
:103AE00006904FF480500B9002A93846FDF7C5F9B7
:103AF00010208DF8040001208DF8070000208DF8BB
:103B0000050001208DF8060001A8FEF7E3FE012262
:103B100002213846FDF7A8F90DB0F0BD10B50446F6
:103B200000212046FDF7D8F840F201412046FDF77C
:103B3000C2F901212046FDF7CFF801210148FEF727
:103B400092FA10BD005400401FB501210220FFF77A
:103B5000BBFB0020ADF80A00ADF806000A20ADF866
:103B600008004720ADF8040001A90F4800F0E4FA6E
:103B70001D208DF8000001208DF803008DF8010054
:103B800003208DF802006846FEF7A4FE01221146CC
:103B9000054800F06DFA0121034800F049FA0121BF
:103BA000014800F048FA1FBD000400401FB5012184
:103BB0000846FFF789FB0020ADF80A00ADF80600C3
:103BC0004FF47A70ADF8080040F2CF20ADF8040051
:103BD00001A94FF0804000F0AFFA1C208DF80000E2
:103BE00001208DF8030000208DF8010001208DF8E0
:103BF00002006846FEF76EFE01221146900700F0B3
:103C000037FA0121880700F013FA0121880700F034
:103C100012FA1FBD7047000001490860704700009C
:103C2000F000002038B50446302003464022282109
:103C3000009006480068FCF7C9FE054B4022282189
:103C40000248006800F026F938BD00005008002046
:103C5000B406002010B5FCF76DFB09A0FDF7E7FEE8
:103C6000094908600846006828B108A000F038FD3E
:103C70000548006810BD0EA000F032FD0020F9E7F5
:103C80006F6C6564000000009C010020C9E8D6C389
:103C9000C4ACC8CF446973706C617944657669635C
:103CA00065A3BA4F4C4544B3C9B9A62E0D0A00000E
:103CB000C9E8D6C3C4ACC8CF446973706C61794499
:103CC0006576696365A3BA4F4C4544CAA7B0DC2E3C
:103CD0000D0A000010B5FCF731FB08A0FDF7CCFE83
:103CE000084908600846006818B107A000F0F8FC11
:103CF00002E00CA000F0F4FC10BD000061736369E9
:103D000069000000C0010020C9E8D6C3C4ACC8CF18
:103D1000D7D6BFE24153434949B3C9B9A62E0D0ACC
:103D200000000000C9E8D6C3C4ACC8CFD7D6BFE2F4
:103D30004153434949CAA7B0DC2E0D0A00000000D8
:103D400010B504A000F0CCFC07A000F073FD0949F9
:103D5000086010BDBBF1B5C3C4ACC8CFCDE6BCD2C2
:103D6000BDC7C9AB2E0D0A0064696E6F73617572B1
:103D7000000000009004002010B5044604480068CC
:103D800010B904A000F0ACFC01200149086010BD8E
:103D900080070020BFAACABCC9E8D6C32E0D0A00FE
:103DA00010B500F001F810BD0CB500200190009096
:103DB0003348006840F480303149086000BF304823
:103DC000006800F4003000900198401C01900098B9
:103DD00018B90198B0F5A06FF1D12948006800F436
:103DE000003010B10120009001E000200090009808
:103DF000012843D12348006840F0100021490860A1
:103E00000846006820F0030008600846006840F09B
:103E1000020008601A48406819494860084640682E
:103E200048600846406840F4806048600846406842
:103E300020F47C1048600846406840F4E810486070
:103E40000846006840F08070086000BF0C480068B9
:103E500000F000700028F9D00948406820F0030005
:103E6000074948600846406840F00200486000BFCB
:103E70000348406800F00C000828F9D10CBD000090
:103E80000010024000200240014908607047000015
:103E9000500000202DE9F04107460D4616461C460D
:103EA000256166612560E068301A401C606021462B
:103EB0003846FDF7F2F9BDE8F08100002DE9F04742
:103EC00006460F4690461C46002500BF0A2094FB7C
:103ED000F0F100FB11403030C2B228466D1C0A4997
:103EE0000A540A2094FBF0F4002CEFDC0020485523
:103EF000084601F0FFFC81464B46424639463046B3
:103F000000F004F8BDE8F087A43500202DE9F04169
:103F10008AB080460E4617461C4600250596069731
:103F200013E060196946FDF7DBF96D1C002009906C
:103F300001A90098FDF794FD18B901A94046FDF7C5
:103F400089F90798059008980690605D0028E8D1E7
:103F50000AB0BDE8F08170B504460D4629462046FA
:103F6000FFF7CCFB70BD10B502F044F803F054F934
:103F700002F050F810BD000010B51348006840F082
:103F800001001149086008464068104908400E4980
:103F90004860084600680E4908400B49086008461A
:103FA000006820F4802008600846406820F4FE0085
:103FB00048604FF41F008860FFF7F2FE4FF000608A
:103FC0000449086010BD0000001002400000FFF826
:103FD000FFFFF6FE08ED00E010B50121880700F0B4
:103FE00036F878B10121880700F022F80648006809
:103FF00010B105480068804704480068012801D1D5
:1040000000F0E4F910BD00005000002088010020FD
:1040100010B50121054800F01AF828B10121034824
:1040200000F006F800F0E4F910BD000000040040C4
:10403000CA430282704721B1028842F00102028025
:1040400004E002884FF6FE731A400280704730B5D4
:104050000246002000230024158A05EA0103958901
:1040600005EA010413B10CB1012000E0002030BDCD
:104070001AB183890B43838102E083898B43838157
:104080007047000070B5002400220023058C4FF615
:10409000FF6635400584028C8388848B4FF68F75CC
:1040A0002C404FF6FC752C400D882C434FF6FF55E5
:1040B0002A400D894FF6FF7606EA05252A434D88EA
:1040C00006EA05252A43154DA84202D0144DA84200
:1040D0001DD14FF2FF752A404D894FF6FF7606EA53
:1040E00005252A434FF6FF352A408D8806EA052527
:1040F0002A434EF6FF752B404DF6FF752B408D89F8
:1041000006EA05152B43CD8906EA05152B43838066
:104110008483CD888587028470BD0000002C014017
:10412000003401400A460021818B4FF6F773194095
:104130001143818370470000002202881D4B984282
:104140000ED01D4B98420BD0B0F1804F08D01B4BC6
:10415000984205D01A4B984202D01A4B984204D18B
:104160004FF68F731A404B881A43174B984207D06B
:10417000164B984204D04FF6FF431A40CB881A439F
:1041800002808B8883850B8803850A4B98420BD06D
:10419000094B984208D00E4B984205D00D4B9842DF
:1041A00002D00D4B984201D10B7A03860123838202
:1041B00070470000002C0140003401400004004022
:1041C00000080040000C00400010004000140040B7
:1041D00000400140004401400048014010B5044641
:1041E0006069804710BD10B50446A068804710BDC7
:1041F00038B504462948006800283ED04020802376
:1042000002460021009026480068FCF7DFFB2348A7
:104210000068401E21490860224B182200212048D6
:104220000068FFF737FE204B102214211C4800685D
:10423000FFF730FE1D4B1022702119480068FFF770
:1042400029FE1B4B30220C2115480068FFF722FE87
:10425000184B3022642112480068FFF71BFE164BF2
:10426000402204210E480068FFF714FE134B402241
:104270006C210B480068FFF70DFE302003464022FA
:104280002821009006480068FCF7A0FB0C4B402258
:10429000282103480068FFF7FDFD38BDDC0400203D
:1042A00050080020E404002004050020240500201C
:1042B0004405002064050020A4050020C40500205A
:1042C000000600203EB5054630A0FDF779FC044607
:1042D0002F48006880B92FA000F002FA4020802308
:1042E00002460021009030480068FCF76FFB284828
:1042F0000068401C26490860022120462269904738
:1043000001A8FCF775FC00283BD028A3102200214F
:1043100025480068FFF7FAFD9DF8063010225F215E
:1043200021480068FFF7CAFD24A310226E211E4811
:104330000068FFF7EBFD9DF80730102273211A4843
:104340000068FFF7BBFD1EA320220021164800686D
:10435000FFF7DCFD9DF8043020224621124800685A
:10436000FFF7ACFD15A3202256210F480068FFF788
:10437000CDFD9DF8053020225A210B480068FFF73B
:104380009DFD4FF47A70FCF727FE3EBD5245440078
:10439000DC040020BFAACABCCEC2CAAAB6C8BCEC04
:1043A000B2E22E0D0A0000005008002054656D7026
:1043B000657261747572653A000000002E0000009D
:1043C00048756D69646974793A00000010B5064853
:1043D0000068401C0449086004480068C16903483B
:1043E00000688847002010BDA00100209C0100202B
:1043F0000448006820B103480068401E0149086075
:10440000704700005400002010B5044800F0FCF88C
:10441000C4B20349204601F085FA10BD00380140BE
:104420001821002021B1828942F40052828104E0E7
:1044300082894DF6FF731A408281704700B585B0BE
:1044400001210420FEF750FF01218803FEF74CFFF5
:104450004FF40070ADF8100018208DF81300032001
:104460008DF8120004A91748FDF790F84FF480600A
:10447000ADF8100004208DF8130004A91148FDF7D1
:1044800085F84FF4E13000900020ADF80400ADF85D
:104490000600ADF80800ADF80C000C20ADF80A00DD
:1044A0006946094800F044F8FEF7FFF9012240F29E
:1044B0002551054800F017F801210348FFF7B2FF26
:1044C00005B000BD00080140003801400246002050
:1044D000B1F5007F00D100BF13880B400BB1012064
:1044E00000E000207047F0B50346002400260025B8
:1044F000002040F66A17B94200D100BF1846C1F348
:10450000421401F01F06012707FA06F5012C01D11C
:104510000C3004E0022C01D1103000E014301AB14C
:1045200007682F43076002E00768AF430760F0BDEC
:104530002DE9F04786B005460E460024A24600BF8E
:10454000A1460027B08900B100BF2F462C8A4CF647
:10455000FF700440F08804432C82AC894EF6F310BF
:104560000440B08831890843718908430443AC8111
:10457000AC8A4FF6FF400440B0890443AC8201A8E6
:10458000FEF7C8FE1F48874202D1DDF810A001E007
:10459000DDF80CA0A88900F4004040B10AEBCA0085
:1045A00000EB0A1031684900B0FBF1F807E00AEBB4
:1045B000CA0000EB0A1031688900B0FBF1F86420F2
:1045C000B8FBF0F004012009642101FB1089A889DF
:1045D00000F4004040B1322000EBC900B0FBF1F024
:1045E00000F00700044308E0322000EB09106421CA
:1045F000B0FBF1F000F00F0004432C8106B0BDE8E1
:10460000F08700000038014001468888C0F30800A8
:104610007047C1F308028280704700BFFEE70000C8
:1046200070B541240DA5FFF709FF0F4801F075F99A
:1046300005E021460D4800F02FF8601CC4B25A2C4A
:10464000F7DD0BA1094800F036F829460BA000F071
:1046500047F80CA000F044F870BD00003130306124
:10466000736B20776473000018210020003801402C
:104670000D0A31303061736B0D0A00006E622C251B
:10468000730D0A00B4AEBFDAB3F5CABCBBAFCDEA56
:10469000B3C92E0D0A00000070B504460D46294628
:1046A0002046FFF7B6FF00BF80212046FFF70EFF30
:1046B0000028F9D070BD70B506460C46002500BF35
:1046C000615D3046FFF7E8FF6D1C605D0028F7D1A3
:1046D00000BF40213046FFF7F9FE0028F9D070BD39
:1046E0000FB4054B10B503A9044A029800F05EF917
:1046F00010BC5DF814FB0000594F00080C090020A5
:1047000010B5FCF789F90446302221460448FBF72E
:1047100095FD0349486880470248FFF7B5FB10BD87
:10472000602500207D53000810B50446024841680A
:104730002046884710BD00008C01002070B5064659
:1047400000250EE00C4850F8254031462068FBF764
:1047500087FD28B9314609A0FFF7C2FF204670BD8A
:104760006D1C0548001F0068A842EBD8314607A021
:10477000FFF7B6FF0020F2E7BC350020B5C3B5BD9A
:10478000C9E8B1B83A25730D0A000000C3BBD3D005
:10479000B5C3B5BDC9E8B1B83A25730D0A0000002C
:1047A00070B5064600250AE0084850F82540314615
:1047B0002068FBF755FD08B9204670BD6D1C034805
:1047C00008380068A842EFD80020F6E794010020DE
:1047D00070B5064600250AE0084850F825403146E5
:1047E0002068FBF73DFD08B9204670BD6D1C0348ED
:1047F000001F0068A842EFD80020F6E7943500209B
:104800000948006808B10020704701200749087076
:10481000002048608860C86005480861012002499E
:1048200008600248F0E70000940400205C36002095
:104830008004002070B5064600250AE0084850F8BC
:10484000254031462068FBF70BFD08B9204670BDB6
:104850006D1C03480838006BA842EFDC0020F6E727
:104860005404002070B5064600250AE0084850F8B8
:10487000254031462068FBF7F3FC08B9204670BD9F
:104880006D1C0348001F0068A842EFD80020F6E71F
:104890005825002070B5064600250AE0084850F863
:1048A000254031462068FBF7DBFC08B9204670BD87
:1048B0006D1C0348001F0068A842EFD80020F6E7EF
:1048C0004025002070B5064600250EE00C4850F843
:1048D000254031462068FBF7C3FC28B9314609A0C2
:1048E000FFF7FEFE204670BD6D1C0548001F0068E6
:1048F000A842EBD8314607A0FFF7F2FE0020F2E70E
:10490000C8360020B5C3B5BDD1A1CFEE3A25730D91
:104910000A000000C3BBD3D0B5C3B5BDD1A1CFEE53
:104920003A25730D0A00000010B50448046802E03F
:10493000A06880472469002CFAD110BD60010020D6
:10494000014609B900207047C8B220B1C8B20E4A6A
:10495000105C401CF7E701F47F4028B10A48C1F31E
:104960000722805C0930EEE701F47F0028B1064899
:10497000C1F30742805C1130E5E7034800EB1160AA
:1049800000781930DFE700004A9E000802E008C8FE
:10499000121F08C1002AFAD170477047002001E0B9
:1049A00001C1121F002AFBD1704700002DE9FF4F03
:1049B0008BB09A460F460546002606E025280BD008
:1049C00052460D9990476D1C761C28780028F5D129
:1049D0000FB03046BDE8F08F0024A04601226049A8
:1049E00000E0044315F8013F203B02FA03F00842BF
:1049F000F7D128782E2817D115F8010F44F00404B8
:104A00002A280ED06FF02F022878A0F13001092952
:104A10000AD808EB880102EB410100EB01086D1C8C
:104A2000F2E757F8048B6D1C287869283ED006DC25
:104A30000028CDD063280BD0642804D136E0732839
:104A400010D075284BD052460D999047761C85E0C2
:104A500017F8040B8DF8000000208DF80100E946DE
:104A6000012003E057F8049B4FF0FF3061074FF03F
:104A7000000401D40AE0641C44450DDA8442FADBE8
:104A800019F804100029F6D106E0641C8442FCDB0E
:104A900019F804100029F8D1264404E019F8010B94
:104AA00052460D999047641EF8D257E001CF4FF05F
:104AB0000A0B002802DA40422D2102E0210504D52C
:104AC0002B218DF82410012103E0E10705D02021DE
:104AD000F7E70DF1200908910CE00021F9E701CF7B
:104AE0004FF00A0BF9E75946FBF7C8FB01F130021A
:104AF00009F8012D0028F6D1ADEB090000F1200BDB
:104B0000600701D44FF00108D84502DDA8EB0B0087
:104B100000E000208046002406E009A85246005D1F
:104B20000D999047641C761C08988442F5DB04E0DC
:104B3000302052460D999047761CB8F10001A8F13B
:104B40000108F5DC05E019F8010B52460D99904774
:104B5000761CBBF10001ABF1010BF4DC6D1C34E7FA
:104B6000092801002DE9FC5F04468B4615461E46C8
:104B7000DDE90C9ADDE90E7804F114004060006074
:104B800000BF1C346560A660C4F80C90C4F810A087
:104B90002321D4E9030201F029FDD4E9033C634455
:104BA0001A1F0F4BD4E9010101F0FEF92060A7762E
:104BB00067760020E061C4F82880C4F82C8060612A
:104BC0002076E06520661C3C00902346054A21467D
:104BD000019004F14C0002F0CEFB0020BDE8FC9FE8
:104BE0005D6F0008897100082DE9F04704460E4604
:104BF00017469846DDF8209084F80990607A20F0F6
:104C000001006072E66127620020A062C4F824807F
:104C1000002506E004F1140101EBC50001F072FA71
:104C20006D1C012DF6DBBDE8F08770B5054600244C
:104C300006E005F1140101EBC40001F0A4FA641CC4
:104C4000012CF6DB70BD70B50446FBF76BFA054628
:104C5000A06F10B12046A16F88472846FBF766FA7F
:104C600070BD000010B507480068012102690548C1
:104C70000068904704480068C16903480068884795
:104C8000002010BDE4010020E8010020024682B9A6
:104C9000094B0868186018460068642802DD642023
:104CA000186006E004480068002802DA0020024B81
:104CB0001860014800687047EC01002010B506A09C
:104CC000FCF77EFF0549086005A0FCF791FE064948
:104CD0000860002010BD000052454400E40100209F
:104CE0006265657000000000E801002010B504480E
:104CF000006800210269024800689047002010BD4A
:104D0000E401002070B504460E46254611480068AF
:104D1000022102690F48006890470F48296800681F
:104D200043690E4802680C4800689847696801EBBF
:104D30008101880000F08EF807480068C1690648C4
:104D400000688847A96801EB8101880000F082F8BB
:104D5000304670BDE4010020E8010020EC01002095
:104D600010B504460348006818B120460149096897
:104D7000884710BDF000002070B504462546044861
:104D8000D5E902312A690068FBF706FE002070BDF4
:104D90005008002070B5044625460448D5E9023184
:104DA0002A690068FBF7F8FD002070BD500800205C
:104DB00070B5044625460448D5E902312A690068E1
:104DC000FBF7EAFD002070BD5008002001460020DE
:104DD000704703460A461946022A0CD1486800F477
:104DE000803080B1486820F480304860486840F0E6
:104DF0000100486007E022B9486840F080504860F0
:104E000001E0486848600020704770B506460C46CF
:104E1000154624B929463046FCF7FEFD05E0012C75
:104E200003D13046FCF7EAFD2860002070BD10B5C4
:104E3000FBF77CFC002010BD2DE9F04104460D4637
:104E400016461F46324629462046FBF785FC0120C0
:104E5000BDE8F081002106E0002200E0521CB2F51E
:104E60007A7FFBDB491C8142F6DB704770B5044654
:104E700025462846FFF780FF284600F09FF9284680
:104E800000F076F8002070BD70B50446254628462F
:104E9000FFF772FF284600F0C1F9284600F068F8D5
:104EA000002070BD70B5044625462846FFF772FF06
:104EB000284600F0E3F9284600F068F8002070BDAD
:104EC00070B5044625462846FFF772FF284600F0D5
:104ED000F5F9284600F068F8002070BD70B504466A
:104EE00025462846FFF772FF284600F035FA284687
:104EF00000F068F8002070BD70B506460C463546D7
:104F000005F1080050F82400406800F0805010B30C
:104F100005F1080252F8240052F82420516A88470B
:104F200005F1080050F82400406800F4801090B1AA
:104F3000FBF7CEFF78B105F1080050F82400C068F7
:104F40001C2808DA05F1080050F82400C068002881
:104F500001DDFBF7B3FF70BD70B504460D46E1B24D
:104F60000248FFF799FB204670BD00000038014061
:104F700070B5044625460448D5E902312A6900681F
:104F8000FEF788FF002070BD5008002070B5044671
:104F900025460448D5E902312A690068FEF77AFF00
:104FA000002070BD5008002070B504462546044816
:104FB000D5E902312A690068FEF76CFF002070BD58
:104FC0005008002070B5044625460448D5E9023152
:104FD0002A690068FEF75EFF002070BD50080020BF
:104FE0001CB5FDF759F9142001214B020022CDE92F
:104FF0000010384938A001F082FF3B49086008469C
:10500000006820B10846006802F086F802E04FF020
:10501000FF301CBD14200421CB010022CDE900107B
:10502000324933A001F06BFF34490860084600683C
:1050300020B10846006802F06FF802E04FF0FF3040
:10504000E7E7142006214FF400730022CDE9001099
:105050002B492CA001F053FF2E4908600846006838
:1050600020B10846006802F057F802E04FF0FF3028
:10507000CFE7142006214FF400730022CDE9001081
:10508000254926A001F03BFF274908600846006833
:1050900020B10846006802F03FF802E04FF0FF3010
:1050A000B7E7142001214B020022CDE900101F496F
:1050B0001FA001F024FF214908600846006820B1C4
:1050C0000846006802F028F802E04FF0FF30A0E741
:1050D00000209EE79D2500086C6F6769635F746818
:1050E00072656164000000003C0000200128000897
:1050F0006D656E755F7468726561640040000020C4
:10510000F1300008706C617965725F746872656176
:105110006400000044000020E918000867616D6524
:105120005F74687265616400480000204D0A0008E1
:105130004D73675F74687265616400004C00002005
:1051400010B5044600F026FCFFF74AFF10BD000032
:10515000F0B50B30154D20F007010024144A0FE084
:1051600003688B420BD38B4205D95E1A43184768FC
:10517000C3E9006700E04368136002C004E0021D59
:1051800010680028ECD12046002802D1286808B118
:105190000020F0BD064A07481060074A121A22F0A4
:1051A0000702C0E9002401202860D7E71409002085
:1051B00010090020FC3B0020F83D002070B504469B
:1051C0002546E868C01EE8601249E8680860E8689B
:1051D00010F1100F1BDA104800685C2809DAFBF7A1
:1051E0001BF8282190FBF1F201FB12008030E860EF
:1051F0000DE0FBF711F80646C01706EB9060801132
:10520000A6EB80110448006828300844E8600020BC
:1052100070BD00004C0300205003002070B5044610
:105220002546E868C01EE8601249E8680860E8683A
:1052300010F1100F1BDA104800685C2809DAFAF741
:10524000EBFF282190FBF1F201FB12008030E860B7
:105250000DE0FAF7E1FF0646C01706EB90608011FB
:10526000A6EB80110448006828300844E86000205C
:1052700070BD0000500300204C03002070B50446B0
:105280002546E868401EE860E86810F1180F13DA58
:10529000FAF7C2FF0646C01706EB5060C011A6EB36
:1052A000C0108030E860FAF7B7FF182190FBF1F2E8
:1052B00001FB120009302861002070BD10B50246C4
:1052C0001146087900F00100C0B121480B6900685F
:1052D000401E204C205C181A08611D480068401EC2
:1052E0001B4B18601846006820BB486820F001007E
:1052F0004860486840F0100048601BE0087900F002
:105300001000B8B1134B124C086924681B5D184497
:1053100008610F480068401C0D4B18601846006873
:10532000092807D1486820F010004860486840F418
:10533000803048608B68DB6903F12000C31700EB05
:1053400093639B11A0EB83138C68E361002010BD75
:10535000F8030020EC03002001460A469068C0696B
:10536000C01C9368D8619068C069B0F5E17F02D134
:1053700000209368D86100207047000070B50024B9
:10538000B0E05C4850F8240085685A4850F8240082
:10539000008A81B25848FCF784F90146554850F814
:1053A0002400406881426AD1524850F82400816844
:1053B000491C504850F8240081604E4850F82400A1
:1053C0008068022812D100214A4850F82400017553
:1053D00000BF484850F82400806930B1454A52F86F
:1053E000240052F824209169884779E0414850F818
:1053F00024008068232812D102213E4850F824005E
:10540000017500BF3B4850F82400806930B1394A2B
:1054100052F8240052F824209169884760E035480A
:1054200050F82400806823285ADD0321314850F8C1
:10543000240001752F4850F82400C06800284FD080
:105440002C4850F82400C068142190FBF1F1294841
:1054500050F82400806890FBF1F201FB1200002854
:105460003ED000BF234850F82400806930B1214A63
:1054700052F8240052F824209169884730E0002136
:105480001C4850F824008160022D14D3232D12D221
:105490000121184850F82400017500BF154850F844
:1054A0002400806930B1134A52F8240052F82420B5
:1054B0009169884714E0232D12D304210D4850F838
:1054C0002400017500BF0B4850F82400806930B1FA
:1054D000084A52F8240052F824209169884700BFF6
:1054E000601CC4B2034808380068A0423FF649AFC8
:1054F00070BD0000682500200008014010B50021A3
:10550000084600F0C1F8002403E00020FDF77DFA12
:10551000641CB4F5806FF8DB10BD000010B500F01E
:1055200069FD1E480068002837D11D49086000BF8A
:105530004FF400311B48FCF7BAFD0028F8D10121D7
:105540001848FCF79CFD00BF17491648FCF76AFD98
:105550000028F9D0002278211248FCF73BFE00BF5A
:1055600012491048FCF75EFD0028F9D040210D4893
:10557000FCF739FE00BF0D49891C0A48FCF752FDB3
:105580000028F8D000F046FD09480068816A084804
:105590000068884701200149086010BDA80100206B
:1055A000A001002000540040010003008200070019
:1055B000A40100202DE9F04106460F463946304649
:1055C000FDF772FA002406E0002500E06D1CB5F539
:1055D0007A7FFBDB641CB4F57A7FF5DBAE20FDF748
:1055E0000DFA2020FDF70AFA0020FDF707FAB02097
:1055F000FDF704FAC820FDF701FA0020FDF7FEF9D7
:105600001020FDF7FBF94020FDF7F8F98120FDF7A8
:10561000F5F9FF20FDF7F2F9A120FDF7EFF9A6203B
:10562000FDF7ECF9A820FDF7E9F93F20FDF7E6F9D1
:10563000A420FDF7E3F9D320FDF7E0F90020FDF702
:10564000DDF9D520FDF7DAF9F020FDF7D7F9D920FB
:10565000FDF7D4F92220FDF7D1F9DA20FDF7CEF9D4
:105660001220FDF7CBF9DB20FDF7C8F92020FDF76C
:10567000C5F98D20FDF7C2F91420FDF7BFF9AF2061
:10568000FDF7BCF9BDE8F08170B504460D46E9B2FE
:1056900041F0B000FDF7B2F9C4F3031141F010007E
:1056A000FDF7ACF904F00F00FDF7A8F970BD00009C
:1056B00030B51A4C436824681919884215D04B88B4
:1056C0009BB9174B1B6899420FD0164B1B688B4236
:1056D00001D1144B18604B684360104B1B68C31A10
:1056E0000E4D4C682D682C44A3600C4C83682468D4
:1056F0001A19824211D053887BB90A4B1B68834226
:1057000001D1084B1A6043685360044B1B68D31ADD
:10571000024D44682D682C44A36030BD5C08002015
:1057200060080020640800202DE9F04F86B00D4687
:105730009C46DDE9106401960F9B04F04008B8F127
:10574000000F02D0DFF8708101E0DFF87081CDF842
:10575000008004F01008B8F1000F01D024F001041B
:1057600004F00108B8F1000F02D04FF0300801E05A
:105770004FF02008C246002704F00208B8F1000FDD
:1057800011D0002A02DA2D2752420CE004F004085E
:10579000B8F1000F01D02B2705E004F00808B8F19C
:1057A000000F00D02027002142B94FF0300B88466F
:1057B000491C0DF1080909F808B01DE01AE0E1469E
:1057C000B9F10A0F08D14FF00A0BB2FBFBFE0BFB3D
:1057D0001E28B2FBFBF202E002F00F08120900BF24
:1057E000DDF8009019F808B08846491C0DF1080949
:1057F00009F808B0002AE2D1B14200DD0E469B1B39
:1058000004F01108B8F1000F10D117B1002B00DD22
:105810005B1E06E0A84203D24FF0200880F800800B
:10582000401CB3F10008A3F10103F3DC27B1A84247
:1058300000D207705B1E401C04F01008B8F1000F86
:105840000AD104E0A84201D280F800A0401CB3F1C4
:105850000008A3F10103F5DC06E0A84203D24FF0F3
:10586000300880F80080401CB046761E8845F4DC85
:1058700008E0A84205D20DF1080818F8018080F868
:105880000080401CB1F10008A1F1010104DDDDF848
:105890000480B8F1000FECD106E0A84203D24FF02B
:1058A000200880F80080401CB3F10008A3F1010338
:1058B000F3DC06B0BDE8F08F5B9F00084A9F00084C
:1058C00001464A69CA608A690A61CA694A607047C2
:1058D00070B505460C462E4606F1080050F8240027
:1058E00038B106F1080252F8240052F82420916AD7
:1058F000884770BD10B50246014600E0491C0C788F
:10590000002CFBD1491E05E013780C7802F8014BFE
:1059100001F801399142F7D810BDD0F80014C0F851
:10592000041470470246D1F80004401CC0F3090378
:10593000D1F80404984204D0D1F800040A54C1F804
:1059400000340020704700001CB514200A214FF4D9
:1059500080730022CDE90010044905A001F0CFFAC0
:105960000446204601F0D8FB1CBD00004151000850
:105970006D61696E0000000010B5044C02E0206803
:105980008047241D02488442F9D310BDD49F0008EB
:10599000D89F000810B5044C02E020688047241D01
:1059A00002488442F9D310BDD89F0008DC9F00084C
:1059B00010B5FAF7B7FB044604480088401C00B253
:1059C000024908802046FAF7B1FB10BDD808002034
:1059D00070B505460E462946042000F0A1FF044696
:1059E0000CB9204670BD6672204600F064FB0020B2
:1059F000E0612046F6E72DE9FF4705460E461746CB
:105A0000DDF8308026B94FF0FF3004B0BDE8F087F4
:105A10004FF0FF3901F058FB044600202063FAF7ED
:105A200081FB824607F0010030B1E8693040B042A6
:105A30000AD14FF0000907E007F0020020B1E86941
:105A4000304008B14FF00009B9F1000F12D1B8F1A0
:105A5000000F03D0E8693040C8F80000E869304022
:105A6000E06384F8407007F00400B0B3E869B04325
:105A7000E86132E0039840B96FF0010020635046BE
:105A8000FAF754FB6FF00100BFE7E66384F840705B
:105A90006A7A214605F1140000F0D6FA039800282E
:105AA00009DD03AA002104F14C0001F01FFC04F100
:105AB0004C0001F077FC5046FAF738FB00F0C4FFC9
:105AC000206B08B1206BA0E7FAF72CFB8246B8F1F7
:105AD000000F02D0E06BC8F800005046FAF726FB32
