:020000040800F2
:10000000B83700200101000831290008412000080C
:1000100065270008E50700082747000800000000E2
:100020000000000000000000000000001D3D00086E
:100030005B0E00080000000083010008714000080A
:100040001B0100081B0100081B0100087D36000889
:100050001B0100081B0100081B0100081B01000810
:100060001B0100081B0100081B0100081B01000800
:100070001B0100081B0100081B0100081B010008F0
:10008000310C00081B0100081B0100081B010008BF
:100090001B0100081B0100081B0100081B010008D0
:1000A0001B0100081B0100081B0100081B010008C0
:1000B000E54000081D4100081B0100081B01000865
:1000C0001B0100081B0100081B0100081B010008A0
:1000D0001B010008154500081B0100081B01000852
:1000E0001B0100081B0100081B010008DFF80CD0F1
:1000F00000F0B8F8004800479D4F0008B8370020CE
:100100000648804706480047FEE7FEE7FEE7FEE7B1
:10011000FEE7FEE7FEE7FEE7FEE7FEE785400008B4
:10012000ED000008EFF3108072B6704780F310887E
:1001300070472349086023494FF0000008602249B6
:100140004FF00100086021484FF47F01D0F80020F3
:1001500041EA020101601E484FF08051016061B622
:1001600062B6194A1368012B04D04FF001031360E3
:10017000144A1060124A116015484FF08051016016
:100180007047EFF3108272B60F48016891B14FF0DB
:10019000000101600B48016829B1EFF3098121E9F1
:1001A000F00F00680160064909680968B1E8F00FBE
:1001B00081F3098882F310884EF0040E7047000026
:1001C00014080020100800201808002020ED00E08E
:1001D00004ED00E00649074A0868504343F239023B
:1001E00010440860400870470149086070470000EB
:1001F000280800206D4EC64140EA01039B0703D04A
:1002000009E008C9121F08C0042AFAD203E011F855
:10021000013B00F8013B521EF9D2704710B5002295
:1002200000E0521C835C8C5CA34201D1002BF8D10E
:10023000D8B2E1B2401A10BD30B50B4601460020DD
:100240002022012409E021FA02F59D4205D303FA98
:1002500002F5491B04FA02F52844151EA2F1010219
:10026000F1DC30BD064C074D06E0E06840F00103CC
:1002700094E8070098471034AC42F6D3FFF73AFFF2
:10028000907D0008B07D000870B58C1810F8015BF7
:1002900015F0070301D110F8013B2A1106D110F81F
:1002A000012B03E010F8016B01F8016B5B1EF9D123
:1002B0002B0705D40023521E0DD401F8013BFAE7A9
:1002C00010F8013BCB1A921C03E013F8015B01F814
:1002D000015B521EF9D5A142D8D3002070BD10B5E4
:1002E00000F040F810BD10B500F07AF810BD10B560
:1002F00000F082F810BD10B500F08AF810BD0000C3
:100300002DE9F04105460C4608261027104800EB61
:100310000518CCB1206920606069C01B401C60607A
:1003200020693044A0616069E061A660E760206AEE
:1003300010B9C4F8208004E010224146206AFFF77B
:100340005BFF0020BDE8F0814FF0FF30FAE70000CE
:10035000C457000808B10822026009B110220A60DF
:100360007047000010B504A1054800F025F90448C5
:10037000C169884710BD000062656570000000001B
:100380008801002010B504F041FA00F001F810BD1A
:1003900010B506A1074800F063FA07A1084800F06D
:1003A0005FFA08A1094800F05BFA10BD4B455931CE
:1003B00000000000B80000204B455932000000004A
:1003C000D40000204B45593300000000F00000200D
:1003D00010B5024802F008F810BD0000100100201E
:1003E00010B502A1034800F0F1FE10BD6F6C65640A
:1003F000000000002801002010B502A1034800F011
:100400004DFF10BD61736369690000007001002039
:1004100010B502A1034801F089FE10BD69326331B5
:10042000000000008800002010B5FFF7D1FF10BDCC
:1004300010B500F001F810BD10B504A1054802F098
:1004400035F805A1054802F031F810BD5748495468
:100450004500000058000020524544007000002074
:1004600010B512A1134802F097FB13A1154802F032
:1004700093FB15A1164802F08FFB16A1174802F056
:100480008BFB17A1174802F087FB17A1184802F051
:1004900083FB18A11A4802F07FFB1AA11C4802F046
:1004A0007BFB1CA11E4802F077FB10BD686F6D65D9
:1004B00000000000A805002074656D7061747572FD
:1004C00065000000E405002067616D650000000024
:1004D00020060020706C6179657200005C060020C7
:1004E0007365740098060020696E666F0000000056
:1004F000D406002067616D655F73746172740000DB
:10050000F006002067616D655F7365740000000090
:100510000C07002067616D655F696E666F00000003
:100520002807002010B500F003F803F08DFC10BD83
:1005300010B5094803F0E8F9084803F0E5F9084860
:1005400003F0E2F9074803F0DFF9074803F0DCF9AC
:10055000064803F0D9F910BD6C0200209802002073
:10056000E40200205803002084030020E003002060
:1005700010B5012002F05CFF002002F059FF10BD11
:1005800010B50446204601F06DFF10BD70B504465D
:100590000D46164632462946204601F02DFF70BD15
:1005A00010B50446204601F037FF10BD10B50446D3
:1005B000204601F037FF10BD70B504460D462046B9
:1005C000216988472560294606A004F00FF90C48E8
:1005D00001680068401C0A4A1060101D40F8214064
:1005E00070BD0000D7A2B2E14265657044657669CE
:1005F00063653A2573B3C9B9A62E0D0A0000000041
:10060000182700202DE9FF4F81B004460D461646FD
:100610000A20B4FBF0FB00FB1B47B4FBF0F04FF0EB
:100620000A0BB0FBFBFE0BFB1E086420B4FBF0F0D2
:100630000090781EDFF89CB05BF820B0009858441A
:10064000DFF894B05BF820304FB1B8F1010F00D162
:100650005B08B8F1030F00D15B00336001E00020BC
:1006600030600A20B5FBF0FB00FB1B50DFF86CB0DC
:100670005BF820A00A20B5FBF0F04FF00A0BB0FBAE
:10068000FBFE0BFB1E0C6420B5FBF0F90001B0FB78
:10069000FAF1B9F1010F01D101EB5101BCF1010FE8
:1006A00001D10A4609E0BCF1000F05D188004FF0E6
:1006B000050BB0FBFBF200E00A4607B900220498E4
:1006C0000260A1EB020B0E98C0F800B0002005B04C
:1006D000BDE8F08FF45F00082427002010600008B8
:1006E00010B50121022000F027F802A004F07EF8E6
:1006F000002010BDD2F4C0D6BDE2C2EBC6F7B3F500
:10070000CABCBBAFB3C9B9A62E0D0A00F8B50546E1
:100710000C46164606F10800012202EB440305F1DF
:100720001E020090D15C12F81400331D3246FFF710
:1007300069FF0020F8BD000030B504460A460021DC
:10074000002300BF24E00B190B2B08DD0C3B1248E3
:1007500050F823004000114D45F8210005E00E48F7
:1007600050F823000D4D45F82100002A08DA0B4807
:1007700050F8210055422841084D45F8210006E077
:10078000064850F821009040044D45F82100491CCE
:100790000C29D8DB002030BDC45F000824270020CE
:1007A00010B503F0C3FFFFF7EDFDFFF73DFE01F0CD
:1007B00007FE00F0EDFBFFF73BFEFFF790FD01F0B9
:1007C00003FE03F045FA00F093F901F0FDF802F0A2
:1007D000D1FE02F095F802F0AFFD02F0EFFE01F05D
:1007E0007FFF10BD00BFFEE730B58BB00446254645
:1007F00001208DF804002869022808D0402803D081
:10080000B0F5807F09D105E00120049006E00220C8
:10081000049003E00320049000E000BF00BF287DA7
:100820000590684602F0AAFD03A003F0DFFF074829
:1008300004F044FF0BB030BDD6D0B6CF3AD3D0B021
:10084000B4BCFCCAE4C8EB2E0D0A00003808002036
:1008500010B5024803F064FA002010BDE907000853
:1008600070B504460D46606810B9206900F026FE98
:1008700025600020A06005202075054801680068FB
:10088000401C034A106002F1080040F8214070BD8E
:100890000015002010B501F0F7FD10BD70B504463D
:1008A0000D46164632462946E06803F0A7F870BDAB
:1008B00010B50446E06803F0D6F810BD10B5044644
:1008C000E06803F0D0F810BD10B50446204603F0F0
:1008D000FDF810BD10B50446D4E90112E06803F03C
:1008E0000BF910BD70B504460D462A46D4E9011037
:1008F00003F055F970BD10B50446D4E9011003F0BA
:1009000039F910BD10B50446D4E9011003F0C9F857
:1009100010BD70B5044604F114000FC803F050F97F
:1009200070BD10B50446606903F082F910BD10B5C2
:1009300003F0C0F910BD2DE9F04107460C4666688A
:100940000FE0256807E00023324629463846D7F8ED
:1009500020C0E0476D1CA16820680844A842F2DC72
:10096000761CE16860680844B042EADCBDE8F081CA
:100970002DE9F04107460D4616461C4600BF0848C3
:1009800000680028FBD1256166612560E068301AA7
:10099000401C606021463846FFF7CDFFBDE8F0817E
:1009A0006C0100202DE9F04780460D461646994619
:1009B000DDF820A000BF0D4800680028FBD1A6EBA1
:1009C0000A00441C0EE02F4607E001232246394668
:1009D0004046D8F820C0E0477F1C05EB0900B8422C
:1009E000F3DC641CB442EEDBBDE8F0876C01002050
:1009F00010B50A48006870B90848006858B9302036
:100A000004F03AFB054908600020096808600448C2
:100A10000249096848600148006810BD0C010020C7
:100A2000950800082DE9F04180464646002409E07B
:100A30001C4A52F834003168FFF7F0FB074607B94B
:100A400005E0641C1748001F0068A042F0DC00BFEE
:100A500007BB144800EBC4007168416000250BE03F
:100A600004EB8403104A02EB8302083252F825207B
:100A70009168706888476D1C04EB84010A4800EB9C
:100A800081004068A842EBDC55B908A0316803F04A
:100A9000ADFE05E00EA0316803F0A8FEBDE8F081D0
:100AA00000BFFBE77C280020D0280020436F726540
:100AB00050726F6373733A2573BBB0CCE2CFC2C37D
:100AC000BBD3D0B6A9D4C4D5DF2E0D0A00000000D8
:100AD000436F726550726F6373733AB2BBB4E6D4FE
:100AE000DAC3FBCEAA2573BBB0CCE22E0D0A000000
:100AF00010B50821014802F0BFFF10BD00080140F9
:100B000010B5002403E0641C012000F01FFA082146
:100B10000C4800F064FD08B1642CF4DB642C0FDA9F
:100B200000BF0821074800F05AFD0028F9D000BF97
:100B30000821044800F053FD0128F9D0012010BD20
:100B40000020FCE70008014070B50025002400BF2C
:100B500018E000BF08210D4800F041FD0028F9D041
:100B6000032000F0F3F96006040E0821074800F0A6
:100B700036FD012801D144F00104042000F0E6F91B
:100B8000681CC5B2082DE4DB204670BD000801409A
:100B900010B5044600F034F8FFF7B2FF70B1FFF76C
:100BA000D3FF2070FFF7D0FF6070FFF7CDFFA0707C
:100BB000FFF7CAFFE070FFF7C7FF20712078617868
:100BC0000844A1780844E17808442179884204D196
:100BD00004A003F00BFE012010BD05A003F006FEEB
:100BE0000020F9E76468743131206F6B2E0D0A0024
:100BF0006468743131206661696C2E0D0A00000052
:100C000010B5062000F0A2F900220821074800F0E4
:100C1000EFFC142000F0B0F901220821034800F095
:100C2000E7FC032000F092F910BD0000000801402D
:100C300010B54FF4001000F0D1F850B14FF400108F
:100C400000F00CF80121034801F0BDFA0020024930
:100C5000086010BD005400406C01002000F080517D
:100C600011B10349086001E0024948607047000083
:100C7000040402400000024021B1026842F0010277
:100C8000026004E002684FF6FE731A40026070478B
:100C900001684FF6FE721140016000210160416061
:100CA0008160C1604B49884208D14A490839496886
:100CB00041F00F01474A083A51608AE04549143132
:100CC000884208D143490839496841F0F001414A56
:100CD000083A51607DE03F492831884208D13D49BA
:100CE0000839496841F470613A4A083A516070E045
:100CF00038493C31884208D136490839496841F4BD
:100D00007041344A083A516063E0324950318842B8
:100D100008D130490839496841F470212D4A083A10
:100D2000516056E02B496431884208D1294908397D
:100D3000496841F47001274A083A516049E0254961
:100D40007831884208D123490839496841F07061F7
:100D5000204A083A51603CE01F49884206D1011FF1
:100D6000096841F00F01021F116032E01A49143185
:100D7000884208D11849091F096841F0F001164A54
:100D8000121F116025E014492831884208D1124908
:100D9000091F096841F470610F4A121F116018E0C1
:100DA0000D493C31884208D10B49091F096841F4BB
:100DB0007041094A121F11600BE007495031884207
:100DC00007D10549091F096841F47021024A121F21
:100DD00011607047080002400804024001460020EC
:100DE000002201F0805313B1054B1A6801E0054B56
:100DF0001A6802EA01030BB1012000E000207047ED
:100E000000040240000002401AB103680B43036073
:100E100002E003688B430360704710B5002202684C
:100E200047F6F0739A430C6A8B6823430C6923439B
:100E30004C6923438C692343CC6923434C6A234385
:100E40008C6A23431A430260CB6843600B6883605B
:100E50004B68C36010BD41607047704710B501F02A
:100E60005DFA024800F0FEFC10BD0000BC27002027
:100E70000448006800692B2801DD0120704700202C
:100E8000FCE700005404002010B50448006802216B
:100E9000026A02480068904710BD00005404002018
:100EA00010B5044624B1012C09D0022C0DD10BE061
:100EB00007480068007808B9FFF7E6FF05E0044836
:100EC000006800F061FC00E000BF00BF002010BD22
:100ED0009C04002070B505460C46072D31D2DFE892
:100EE00005F004090E1318262B001748006802F0BD
:100EF0002CF826E01448006802F05CF921E0124862
:100F0000006801F0DFFF1CE00F48006801F0FBFF04
:100F100017E00D492068096848600B480068006CBC
:100F2000C26809480168091D0020904709E0064889
:100F300000684068206004E0034800680078206092
:100F400000BF00BF002070BDB401002001B50849FA
:100F5000009808600121074803F0F3F800BF044837
:100F600000680028FBD10021024803F0EAF808BD20
:100F7000180000200004004031B5002403E0642084
:100F8000FFF7E4FF641C00988442F8DB38BD0000E2
:100F90002DE9F04163A602F0E1FE654908600846CC
:100FA000006820B963A003F021FCBDE8F08167A0D0
:100FB00003F01CFC04F036FA6AA003F017FC0024CE
:100FC00011E0002509E05A4800680123224629461D
:100FD000076A57480068B8476D1C55480068806824
:100FE000A842F0DC641C52480068C068A042E8DCFB
:100FF0004F490968C86800EBD0714C10002509E022
:101000004B480068012322462946076A4848006881
:10101000B8476D1C464800688068A842F0DC444927
:101020000968886800EBD0714D10002409E0404841
:101030000068012322462946076A3D480068B847F0
:10104000641C3B480068C068A042F0DC00250AE050
:101050006C0037480068012322462946076A344855
:101060000068B8476D1C324800688068A842EFDC11
:1010700000240CE0C4F1400045002D480068012325
:1010800022462946076A2A480068B847641C28484F
:101090000068C068A042EDDC25480068C1692448AA
:1010A0000068884732A003F0A1FB02F097FE36A04B
:1010B00003F09CFB43F6B623202232211C48006833
:1010C00002F080FF334640220C211948006802F0EC
:1010D000A1FF002411E0002509E015480068002365
:1010E00022462946076A12480068B8476D1C104816
:1010F00000688068A842F0DC641C0D480068C06885
:10110000A042E8DC17A003F071FB4FF47A7003F003
:101110007FFE22A003F06AFB002003F08BFB00BFE0
:1011200043E7000061736B313030313231323300CC
:1011300024080020C3BBD3D0C3FBD7D6CEAA6F6C84
:101140006564B5C4C9E8B1B82E0D0A00BBF1B5C3DA
:10115000CFD4CABEC9E8B1B83A6F6C65642E0D0A27
:1011600000000000C7E5B3FDC6C1C4BB2E0D0A00D8
:10117000C4ACC8CFD7D6BFE24153434949B3F5CA3F
:10118000BCBBAF2E0D0A0000CFD4CABED7D6B7FB6A
:10119000B4AE33C3EB2E0D0A00000000BFAAC6F4A4
:1011A000B6A8CAB1C6F7CBA2D0C2C6C1C4BB2E0D69
:1011B0000A000000014619B90122034B1A6002E03F
:1011C0000022014B1A6070474C01002070B50446A4
:1011D0000D462046A16988472560054801680068DA
:1011E000401C034A106002F1080040F8214070BD25
:1011F000500100202DE9F04107460C46666815E0D5
:1012000025680DE032462946204600F00BFE804658
:101210004346324629463846D7F820C0E0476D1C81
:10122000A16820680844A842ECDC761CE16860688C
:101230000844B042E4DCBDE8F0812DE9F041074606
:101240000C46666815E025680DE0324629462046C2
:1012500000F064FC80464346324629463846D7F8BB
:1012600020C0E0476D1CA16820680844A842ECDC5F
:10127000761CE16860680844B042E4DCBDE8F081B7
:1012800002780A60704710B50446E068804710BDD8
:1012900010B504462068804710BD000010B50160FD
:1012A000044A13681268521C024C2260221D42F844
:1012B000230010BDF026002010B5044611A3102213
:1012C0000A211248006802F0A5FE11A320220A217B
:1012D0000E48006802F09EFE0EA330220A210B4841
:1012E000006802F097FE0DA320223721074800680E
:1012F00002F090FE0AA3302237210448006802F071
:1013000089FE10BD535441525400000024080020AF
:1013100053455400494E464F000000002020000075
:101320003C2D000010B504460448006810B904A024
:1013300003F05CFA01200149086010BD500700204D
:10134000D3CECFB7D0C5CFA22E0D0A0010B504461C
:1013500011A310220A211248006802F05BFE11A3BB
:1013600020220A210E48006802F054FE0EA330220B
:101370000A210B48006802F04DFE0DA31022372110
:101380000748006802F046FE0AA3202237210448DD
:10139000006802F03FFE10BD53544152540000005B
:1013A0002408002053455400494E464F00000000D9
:1013B000202000003C2D000010B5044604480068C1
:1013C00010B904A003F012FA01200149086010BD11
:1013D0004C070020D3CECFB7C9E8D6C32E0D0A00E4
:1013E00038B504462248006868B940208023024688
:1013F000002100901F480068FFF7D4FA1C480068DD
:10140000401C1B4908601C48006868B140208023CC
:1014100002460021009017480068FFF7C3FA1648FB
:101420000068401E1449086014A310220A211148C4
:10143000006802F0EFFD13A320220A210D48006886
:1014400002F0E8FD10A330220A210A48006802F0E9
:10145000E1FD0FA3302237210648006802F0DAFDD3
:101460000CA3102237210348006802F0D3FD38BDD9
:10147000A004002024080020A4040020535441525A
:101480005400000053455400494E464F00000000F0
:10149000202000003C2D00000549096839B90449A5
:1014A0000968491C024A11600249034A11607047E9
:1014B000A4040020980800202008002010B504464D
:1014C000204600F0B5FF10BD2DE9F0410246002591
:1014D0000026002000230024002791F803C00CF010
:1014E0000F0591F803C00CF0100CBCF1000F03D0F5
:1014F00091F802C04CEA050591F800C0BCF1000F5C
:1015000031D0146800202BE04FF0010C0CFA00F3EE
:10151000B1F800C00CEA03069E4220D183004FF0D0
:101520000F0C0CFA03F7BC4305FA03FC4CEA040465
:1015300091F803C0BCF1280F06D14FF0010C0CFA52
:1015400000FCC2F814C00AE091F803C0BCF1480FD7
:1015500005D14FF0010C0CFA00FCC2F810C0401C81
:101560000828D1D31460B1F800C0BCF1FF0F34DDFE
:10157000546800202EE000F1080C4FF0010808FA32
:101580000CF3B1F800C00CEA03069E4221D183009F
:101590004FF00F0C0CFA03F7BC4305FA03FC4CEABE
:1015A000040491F803C0BCF1280F05D100F1080C28
:1015B00008FA0CF8C2F8148091F803C0BCF1480F87
:1015C00007D100F1080C4FF0010808FA0CF8C2F836
:1015D0001080401C0828CED35460BDE8F08102463C
:1015E000002093680B400BB1012000E00020704701
:1015F0000AB1016100E041617047000038B504465E
:101600002948006800283ED040208023024600215F
:10161000009026480068FFF7C5F923480068401E7F
:1016200021490860224B182200212048006802F05E
:10163000B5FC204B102214211C48006802F0AEFCBF
:101640001D4B102270211948006802F0A7FC1B4BAB
:1016500030220C211548006802F0A0FC184B302203
:1016600064211248006802F099FC164B40220421C4
:101670000E48006802F092FC134B40226C210B488C
:10168000006802F08BFC30200346402228210090A5
:1016900006480068FFF786F90C4B402228210348D2
:1016A000006802F07BFC38BDA00400202408002064
:1016B000A8040020C8040020E80400200805002039
:1016C000280500206805002088050020000600206D
:1016D00010B5044601A003F089F810BDD3C0D4B6FC
:1016E000B2BBBBE1B5BDB4EF2EB7F1D4F2B4EDCED1
:1016F000F32E0D0A0000000010B502A003F076F8EA
:1017000010BD0000D3CECFB7D7B4CCACCFC23AB562
:10171000DAD2BBB8F6B0B4BCFCB3A4B0B42E0D0A98
:101720000000000010B506A003F060F80CA003F064
:101730005DF8134813490860002001F011FA10BD4C
:10174000D3CECFB7D7B4CCACCFC23AB5DAD2BBB8D0
:10175000F6B0B4BCFCB6CCB0B42E0D0A000000004C
:10176000B4CBCAB1CFE0B5B1D3DAB2CBB5A5D7B45B
:10177000CCACCFC23AB7B5BBD82E0D0A00000000E2
:10178000580800202008002038B50446207880B191
:101790000020207008A003F029F840208023024692
:1017A0000021009009480068FFF7FCF820694168B3
:1017B0008847002038BD0000D3CECFB7BDF8C8EBB6
:1017C000D4CBD0D0D7B4CCAC2E000000240800205D
:1017D00010B502A003F00AF810BD0000D3CECFB7B9
:1017E000D7B4CCACCFC23AB5DAB6FEB8F6B0B4BC1A
:1017F000FCB3A4B0B42E0D0A0000000010B503A085
:1018000002F0F4FF0120FFF74BFB10BDD3CECFB7A2
:10181000D7B4CCACCFC23AB5DAB6FEB8F6B0B4BCE9
:10182000FCB6CCB0B42E0D0A0000000010B5044682
:101830000AA3102223210A48006802F0EBFB1022C1
:101840003A2107486368006802F0BCFB10225C2163
:101850000348A368006802F0B5FB10BD48493A0090
:101860002408002010B504462078012801D001206A
:101870002070D4E90110884201DDA068606000207A
:10188000A0600B4B282232210A48006802F086FB38
:1018900009A328220A210748006802F0BBFB08A31D
:1018A000282256210348006802F0B4FB002010BD36
:1018B0005C0400202408002047414D450000000042
:1018C0004F5645520000000010B502A002F08EFFF6
:1018D00010BD0000D3CECFB7D7B4CCACCFC23AB591
:1018E000DAC8FDB8F6B0B4BCFCB3A4B0B42E0D0A8F
:1018F0000000000010B503A002F078FF0020FFF701
:10190000CFFA10BDD3CECFB7D7B4CCACCFC23AB597
:10191000DAC8FDB8F6B0B4BCFCB6CCB0B42E0D0A33
:1019200000000000214B402200212148006802F005
:1019300035FB42F6E06003F06BFA002411E000256D
:1019400009E01B480068002322462946066A184819
:101950000068B0476D1C164800688068A842F0DC3B
:10196000641C13480068C068A042E8DC11A002F0C3
:101970003DFF19E0134800680078A8B911480068D5
:101980008068401C0F49096888600E4A1268106917
:101990000C4A12681269116888470A480068FFF704
:1019A00045FFC82003F034FAE4E700007C0400207F
:1019B0002408002047616D65205468726561642EBB
:1019C0000D0A00009C04002010B5FEF7ABFD00F0EE
:1019D000A1F80149086010BD9C04002070B50546BF
:1019E000281D00F095F904460C480068007C012889
:1019F00007D10BA002F0FAFE00200849096808741C
:101A00000AE034B10DA002F0F1FE201F0349086086
:101A100002E00DA002F0EAFE70BD000054070020B5
:101A2000C7D0BBBBB5BD4F5054494F4E5F43484F25
:101A30004F5345D7B4CCAC2E0D0A0000D3D0B8B864
:101A4000BDDAB5E32E0D0A00C3BBD3D0B8B8BDE1F3
:101A5000B5E32E0D0A00000010B50446204602F042
:101A6000F3FE10BD0246002100E0891C02F11E00B9
:101A7000405C0028F9D10B4601EBD3704010704751
:101A80000246002002E0135C0B54401C135C002B48
:101A9000F9D10B54704710B50446204602F006FFFA
:101AA00010BD000070B50546281D00F023F904465E
:101AB00034B107A002F09AFE201F0849086006E032
:101AC00007A002F093FE012004490968087470BD64
:101AD000D3D0D7D3BDE1B5E32E0D0A0054070020C3
:101AE000C3BBD3D0D7D3BDE1B5E32E0D0A000000B0
:101AF00070B504460D460348006829460269204631
:101B0000904770BD8401002010B50446204602F0C5
:101B1000E5FE10BD10B502F0F9FE10BDF0B50346AC
:101B20000C46D3E90607C5191868261A5868111A11
:101B30000846CF1701EB5777FF10D3F808C007FB13
:101B40000C673D44CF1701EB5777FF10A1EBC7019E
:101B5000287801278F40384008B10120F0BD0020CF
:101B6000FCE70000F0B58DB004463022224901A800
:101B7000FEF742FB6069451E642195FBF1F12846A2
:101B8000EA1705EB9272C1EBA2014FF4C87295FB04
:101B9000F2F28F186069C11700EB91718910A0EB08
:101BA000810191B96422616991FBF2F302FB131187
:101BB00031B99200616991FBF2F302FB131121B973
:101BC0002169022901DD012600E0002640F26D10A6
:101BD00005FB00712069401E01AA52F8200008444C
:101BE000E16808440644072096FBF0F100FB116011
:101BF000A0610DB0F0BD00009457000810B5044678
:101C0000204602F0B3FE10BD10B5044614B94FF0E3
:101C1000FF3010BD1348D0F8BC011249D1F8B811FB
:101C2000884202D14FF0FF30F3E70E48D0F8BC01F4
:101C300000EB400202EBC0000A4A02EB80012C22BA
:101C40002046FEF7D9FA0748D0F8BC01401C0A210B
:101C5000B0FBF1F201FB12000249C1F8BC01002007
:101C6000D7E700003015002010B50446204602F0EA
:101C700095FE10BD70B50546281D00F057F80446C6
:101C80000B480068007C012806D10AA002F0AEFDD6
:101C9000002007490968087434B10DA002F0A6FDC0
:101CA000201F0349086002E00EA002F09FFD70BDF6
:101CB00054070020C7D0BBBBB5BD4F5054494F4E51
:101CC0005F43484F4F5345D7B4CCAC2E0D0A0000AC
:101CD000C7D0BBBBB5BDD0D6B5DCBDE1B5E32E0DDD
:101CE0000A000000C3BBD3D0D0D6B5DCBDE1B5E35C
:101CF0002E0D0A0001464868401C08B900207047B4
:101D000002484A6850F82200F9E70000D427002072
:101D100001460868401C08B90020704702480A685C
:101D200050F82200F9E70000D42700200146886817
:101D3000401C08B90020704702488A6850F8220009
:101D4000F9E70000D42700202DE9F04107460D46B1
:101D5000324897FBF0F697FBF0F100FB11784FF457
:101D6000616098FBF0F0A8604FF4616098FBF0F1BF
:101D700000FB11803C2190FBF1F068604FF4616042
:101D800098FBF0F100FB11803C2190FBF1F201FB8C
:101D90001200286040F2B2740EE02046E11704EB16
:101DA00091718910A4EB810111B94FF4B77101E071
:101DB00040F26D11761A641CE11704EB91718910E1
:101DC000A4EB810111B94FF4B77101E040F26D113C
:101DD000B142E2DD6C616869C11700EB9171891055
:101DE000A0EB810111B91D200D494860012405E0D7
:101DF000601E0B4951F82000361A641C601E084909
:101E000051F82000B042F3DD1C2048602C61701CAA
:101E1000E8602846FFF7A6FEBDE8F081805101008A
:101E20001C000020F0B503460C4615461A6A1868D7
:101E3000261A5868291A082901DA324402E006F104
:101E400008000244082900DB08391778012088407F
:101E500007400FB10120F0BD0020FCE710B501469E
:101E60000869801E0861002805DC08690C300861DB
:101E70004869401E48616423486990FBF3F04A6951
:101E8000D31702EB9373C0EBA3004FF4C87492FB1B
:101E9000F4F3034440F26F14086960430C2490FB90
:101EA000F4F01844CB68034440F26D1402FB043094
:101EB000084BC01A00EB40008B6803EBC000C0EB7E
:101EC00000104B6803EB8000C0EB00100B6803EBC5
:101ED000800010BD8BFA0A00084902680A60426857
:101EE0004A60096831B90549496819B90121044AAC
:101EF000116002E00021024A11607047740700205F
:101F0000F007002010B5044603A002F06FFC0B4858
:101F10002168016010BD0000B6A9D4C4D5DFB2A508
:101F2000B7C5C6F7D7B4CCACD0C5CFA22CB2A2BD32
:101F3000F8D0D0B4A6C0ED2E0D0A00007007002026
:101F400010B504461C2221463848FEF755F938489A
:101F50000068002868D037A310222821364800687E
:101F600002F058F8314880680A280FDA002310225E
:101F700028213148006802F025F82C481022302131
:101F800083682D48006802F01DF807E0274800220A
:101F9000282183682848006802F014F827A310223B
:101FA00039212548006802F035F8204840680A28A1
:101FB0000FDA0023102242211F48006802F002F8C5
:101FC0001A4810224A2143681B48006801F0FAFFB2
:101FD00007E016481022422143681748006801F0C4
:101FE000F1FF16A3102253211348006802F012F8E3
:101FF0000E4800680A280FDA002310225D210E48DF
:10200000006801F0DFFF09481022652103680A48D3
:10201000006801F0D7FF07E0044810225D21036843
:102020000548006801F0CEFF10BD0000982900208F
:10203000F007002020090900240800203A000000D1
:1020400000BFFEE710B504461C4B182200211C48B7
:10205000006801F0A3FF1B4B1022142118480068F0
:1020600001F09CFF184B102270211548006801F008
:1020700095FF164B30220C211148006801F08EFFAD
:10208000134B302264210E48006801F087FF114B8A
:10209000402228210A48006801F080FF0E4B4022B0
:1020A00004210748006801F079FF0C4B40226C21A5
:1020B0000348006801F072FF10BD0000A804002072
:1020C00024080020C8040020E8040020080500209F
:1020D000280500204805002068050020880500200C
:1020E00010B5044601A002F081FB10BDD3C0D4B6E8
:1020F000B2BBBBE1B5BDB4EF2EB7F1D4F2B4EDCEB7
:10210000F32E0D0A0000000010B50446204600F032
:10211000AFF910BD10B50446204600F0AFF910BD70
:1021200010B50446204600F089F910BD70B504468C
:102130000D462046216988472560054801680068EA
:10214000401C034A1060101D40F8214070BD000083
:10215000F414002070B5024600240025002300205E
:10216000958A138B1B0445EA030626F07F4404EA94
:1021700001068E4201D1012000E0002070BD21B196
:10218000028842F00102028004E002884FF6FE73EA
:102190001A400280704721B1828842F40062828036
:1021A00004E082884FF2FF731A408280704721B1A9
:1021B000028842F48072028004E002884FF6FF63D6
:1021C0001A400280704721B1028842F400720280F6
:1021D00004E002884FF6FF531A40028070470CB5A6
:1021E0000246002000230193009300920B0F0193FD
:1021F00021F07F41019B1BB1009B1433009303E04E
:10220000090C009B18330093009B1B680B400BB11B
:10221000012000E000200CBD2DE9F04385B004460C
:102220000D460026B1460427DFF8CC80A6884FF67D
:10223000C0700640684601F001F9DDF808802F48BB
:10224000B8FBF0F01FFA80F946EA0906A68020885C
:102250004FF6FE71084020800026294928688842F0
:102260000CD828684000B8FBF0F087B2042F00DAE1
:1022700004273E4309F10100208427E0E8884BF65B
:10228000FF71884206D1286800EB4000B8FBF0F0EF
:1022900087B209E0286800EBC00101EB0010B8FB31
:1022A000F0F087B247F48047C7F30B0008B947F056
:1022B000010747F4004006434FF4967009FB00F015
:1022C0004FF47A7190FBF1F0401C2084A6832088A3
:1022D00040F00100208026884FF6F5300640A8889F
:1022E0006989084306432680A889298908432081F3
:1022F00005B0BDE8F083000000127A0040420F00F4
:10230000A086010012B141F0010102E04FF6FE7318
:1023100019400182704701827047000010B506A085
:10232000FFF7A2FC0649086008460068012102691F
:1023300003480068904710BD5748495445000000C5
:102340000C04002010B506A0FFF78EFC06490860BB
:10235000084600680021026903480068904710BDE4
:1023600057484954450000000C04002038B5044685
:102370003020034640222821009006480068FEF7DE
:1023800011FB054B402228210248006801F006FE9F
:1023900038BD000024080020B406002010B5044613
:1023A0000448006810B904A002F020FA0120014995
:1023B000086010BD48070020D0C5CFA22E0D0A002E
:1023C00010B502F035FB10BD10B5FEF749F803A0BB
:1023D00002F0FCFA0349086010BD0000686F6D65EB
:1023E000000000005407002002490968016101490A
:1023F000086070472401002070B505460C4616465B
:102400000448B0FBF4F0441E324621462846FEF74D
:1024100045FA70BD4019010010B504462046FEF78C
:1024200047FA10BD10B504462046FEF747FA10BD26
:1024300010B504462046FEF747FA10BD10B5044615
:102440002046FEF747FA10BD70B504460D462946F2
:102450002046FEF747FA70BD10B504462046FEF749
:102460004AFA10BD10B504462046FEF74BFA10BDDF
:1024700010B504462046FEF74CFA10BD10B50446D0
:102480002046FEF74EFA10BD10B5FEF750FA10BD0B
:1024900070B504460D4629462046FFF7D5FF70BDAE
:1024A00010B504462046FFF7D7FF10BD70B50446AF
:1024B0000D462046E16888472560054801680068A8
:1024C000401C034A1060101D40F8214070BD000000
:1024D000DC1400208CB05AA002F088F9AFE05C4810
:1024E00000685C49884203D15B485C49086019E098
:1024F000574800685A49884203D15A4857490860EA
:1025000010E0534800685849884203D1574853495E
:10251000086007E04E4800685549884202D155A03E
:1025200002F064F901A8FFF76FFB00286DD1059850
:1025300001280ED19DF8080001280AD1069840B95B
:1025400054485549086055480068401C5349086084
:102550005BE0059802280ED19DF8080001280AD1F9
:10256000069840B94E484C4908604C480068401CE9
:102570004A49086049E0059803280ED19DF80800F3
:1025800001280AD1069840B94648434908604348A3
:102590000068401C4149086037E0059801280FD1C8
:1025A0009DF8080001280BD10698032808D13E4861
:1025B0003949086039480068401C3849086024E0FF
:1025C000059802280FD19DF8080001280BD1069824
:1025D000032808D135483049086030480068401C5D
:1025E0002E49086011E0059803280ED19DF80800D7
:1025F00001280AD10698032807D12D4826490860EA
:1026000026480068401C25490860244800680028C6
:102610000EDD28A002F0EAF81F48006801680F48A4
:10262000006888471D480068401E1C49086002E099
:1026300025A002F0DBF80648006803F03FF84EE7FB
:102640004C6F676963205468726561642E0D0A00DF
:102650002008002058080020AC070020E0070020D8
:10266000780800207C0700209808002094070020AC
:1026700038080020B2BBBBE1B5BDB4EFD5E2C0EF76
:102680002CB7F1D4F2B7A2C9FAB4EDCEF32E0D0AED
:1026900000000000C4070020DC0700200C08002018
:1026A000C8070020CC070020D0070020D407002056
:1026B000D80700202D2D2D2DD3D0B7C3CECAD5DFFE
:1026C0002D2D2D2D2E0D0A002D2D2D2DC3BBD3D03C
:1026D000B7C3CECAD5DF2D2D2D2D2E0D0A0000003B
:1026E00010B50BA002F082F80F481049086010489E
:1026F000014602680FA0904712480146026812A0E6
:10270000904710481349026813A0904710BD00007D
:102710004C6F6769632054687265616420496E6913
:10272000742E0D0A00000000AC070020E007002016
:10273000E4070020706C617965725F746F70696383
:1027400000000000F40700206D656E755F746F7007
:1027500069630000000800207274635F746F706921
:102760006300000000BFFEE710B503A002F03EF8D2
:10277000002000F0F5F910BDB2CBB5A5D7B4CCACB4
:10278000CFC23AB5DAD2BBB8F6B0B4BCFCB3A4B091
:10279000B42E0D0A0000000010B503A002F026F8C8
:1027A000002000F0DDF910BDB2CBB5A5D7B4CCAC9C
:1027B000CFC23AB5DAD2BBB8F6B0B4BCFCB6CCB036
:1027C000B42E0D0A0000000010B504462046FEF7A6
:1027D00029F910BD10B503A002F008F8012000F09F
:1027E000BFF910BDB2CBB5A5D7B4CCACCFC23AB50A
:1027F000DAB6FEB8F6B0B4BCFCB3A4B0B42E0D0A81
:102800000000000010B503A001F0F0FF012000F06F
:10281000A7F910BDB2CBB5A5D7B4CCACCFC23AB5F1
:10282000DAB6FEB8F6B0B4BCFCB6CCB0B42E0D0A25
:102830000000000010B503A001F0D8FF022000F056
:102840008FF910BDB2CBB5A5D7B4CCACCFC23AB5D9
:10285000DAC8FDB8F6B0B4BCFCB3A4B0B42E0D0A0F
:102860000000000010B503A001F0C0FF022000F03E
:1028700077F910BDB2CBB5A5D7B4CCACCFC23AB5C1
:10288000DAC8FDB8F6B0B4BCFCB6CCB0B42E0D0AB4
:102890000000000010A001F0A9FF1BE01248006832
:1028A000007C30B91048006841690F4800688847CB
:1028B00005E00D48006881690B48006888470B48AF
:1028C00000680B4908600B48006848600A480168C6
:1028D0000A488847E2E700004D656E75205468722B
:1028E0006561642E0D0A000054070020A00400203A
:1028F00058070020A404002068070020600700207B
:1029000010B503A001F072FF06A000F01FFF10BD7C
:102910004D656E752054687265616420496E6974F6
:102920002E0D0A006D656E755F746F70696300002F
:10293000704708B54FF4A06000F048F825208DF8E6
:10294000000003208DF8010001208DF802008DF8B1
:102950000300684600F002F808BD000070B50021D1
:1029600000230F22C47804B3154C246804F4E064F7
:10297000C4F5E064210AC1F10403CA40447804FAB2
:1029800003F184781440214309010E4C0678A155C7
:10299000047804F01F050124AC4005786D11AD00EA
:1029A00005F1E025C5F8004109E0047804F01F05B1
:1029B0000124AC40044D0678761145F8264070BDE0
:1029C0000CED00E000E400E080E100E0024901439A
:1029D000024A1160704700000000FA050CED00E0AB
:1029E00004490A680968491C024B1960191D41F81D
:1029F00022007047D027002070B504460D4600BF66
:102A00004FF400311C48FFF7EAFB0028F8D1012100
:102A10001948FFF7CCFB00BF18491748FFF79AFB8E
:102A20000028F9D0002278211348FFF76BFC00BF83
:102A300013491148FFF78EFB0028F9D021460E48B4
:102A4000FFF769FC00BF0E49891E0B48FFF782FBA8
:102A50000028F8D029460848FFF75DFC00BF084968
:102A6000891C0548FFF776FB0028F8D001210248B1
:102A7000FFF7A9FB70BD00000054004001000300F7
:102A80008200070010B5044621460020FFF7B4FF7E
:102A900010BD10B5044621464020FFF7ADFF10BD24
:102AA00010B5044602F0CEFC10BD10B504466169B5
:102AB000606802F015FD10BD2DE9F04104460D4699
:102AC0001F46D4F804C0A068A84206DD002D04DD2E
:102AD000E068904201DD002A03DC4FF0FF30BDE8E2
:102AE000F08110464FEAE27802EB58784FEAE803AB
:102AF0000CEBC310411910464FEAE27802EB58780C
:102B00004FEAE808A2EBC80647B108784FF0010881
:102B100008FA06F840EA0800087007E091F800801B
:102B20000120B04028EA000881F800800020D6E7A4
:102B300070B504460D46FDF7DEFB06A0FFF75EF814
:102B40000649086008460068C461084600680562D6
:102B5000002070BD69326331000000006801002070
:102B600010B5044624B1012C07D0022C0FD109E086
:102B700008480068FEF732FF0AE006480068FFF7E1
:102B800079F805E003480068FEF78CFF00E000BF1D
:102B900000BF10BD5407002070B504460D462560E7
:102BA000201DFFF71DFF054801680068401C034A0F
:102BB0001060101D40F8214070BD00002428002046
:102BC000014908627047000000000E420246D068CA
:102BD0000A2802D14FF0FF307047D368581CD060EC
:102BE00002F1180040F823100020F5E738B504463C
:102BF0002948006800283ED040208023024600215A
:102C0000009026480068FDF7CDFE23480068401E6E
:102C100021490860224B182200212048006801F059
:102C2000BDF9204B102214211C48006801F0B6F9B0
:102C30001D4B102270211948006801F0AFF91B4BA1
:102C400030220C211548006801F0A8F9184B3022F9
:102C500064211248006801F0A1F9164B40220421BA
:102C60000E48006801F09AF9134B40226C210B4882
:102C7000006801F093F9302003464022282100909B
:102C800006480068FDF78EFE0C4B382230210348C1
:102C9000006801F083F938BDA0040020240800205A
:102CA000A8040020C8040020E80400200805002033
:102CB0002805002068050020880500203C0600202B
:102CC00070B504460E461546072E23D2DFE806F0FF
:102CD00004080C10141C1F00204600F036F919E0FF
:102CE000204600F067FA15E0204600F0EBF811E00E
:102CF000204600F008F90DE028686060206C211D76
:102D0000C2680020904705E06068286002E02078F3
:102D1000286000BF00BF002070BD000038B5044629
:102D20000F480068D0B9402080230246002100905F
:102D30000C480068FDF736FE09480068401C084949
:102D4000086009A001F052FD0BA3102200210548E4
:102D5000006801F05FF90B480B49086038BD0000BE
:102D6000A004002024080020BFAACABCB2A5B7C591
:102D7000B8E8C7FA2E0D0A00506C617965722E2EE4
:102D80002E000000780800202008002010B509A0BF
:102D900001F02CFD0F480068401E0E4908600846EF
:102DA0000068002801DA002008600A490420FEF7C4
:102DB00091F810BDB2A5B7C5C6F7D7B4CCACCFC299
:102DC0003AB5DAD2BBB8F6B0B4BCFCB3A4B0B42EFA
:102DD0000D0A00006C07002010B504A001F006FDEC
:102DE0000A490220FEF776F810BD0000B2A5B7C56B
:102DF000C6F7D7B4CCACCFC23AB5DAD2BBB8F6B0CE
:102E0000B4BCFCB6CCB0B42E0D0A00006C07002098
:102E100010B51C481C4908601C4848601C48886064
:102E20001C48C8601C4808611C481D4908601D48B2
:102E300048601D48886014481C4908641848486464
:102E40001B491A48FFF7C2FE1A491848FFF7BEFE91
:102E500019491648FFF7BAFE18491448FFF7B6FE9D
:102E600017491248FFF7B2FE104800F06FF9002230
:102E700011460E48FFF724FF0C4800F0E1F80B481C
:102E800010BD0000794C000854270020A94C000810
:102E9000214C0008494C0008C14C0008EB4D0008CB
:102EA00068270020C74D0008F54D00087427002052
:102EB0002C6000083E62000850640008626600084A
:102EC0007468000838B50446A068012803DDA068CE
:102ED000401EA06001E0E068A06000202061A168C1
:102EE000491E04F1180252F82100616C6A464B68D1
:102EF0000121984700986061207810B1204600F0C9
:102F000024F8002038BD38B50446D4E902018842CF
:102F100003DAA068401CA06001E00120A06000204E
:102F20002061A168491E04F1180252F82100616C69
:102F30006A464B680121984700986061207810B17B
:102F4000204600F002F8002038BD0146087808B19C
:102F5000002008700020704710B504462046FDF799
:102F600061FD10BD10B508A001F040FC0EA001F0FD
:102F70003DFC15490120FDF7ADFF0020FFF7F0FDF6
:102F800012481349086010BDB2A5B7C5C6F7D7B43B
:102F9000CCACCFC23AB5DAB6FEB8F6B0B4BCFCB32E
:102FA000A4B0B42E0D0A0000B4CBCAB1CFE0B5B1C5
:102FB000D3DAB2CBB5A5D7B4CCACCFC23AB7B5BB98
:102FC000D82E0D0A000000006C07002058080020D1
:102FD0002008002010B50DA001F008FC134800687F
:102FE00038B913A001F002FC14490120FDF772FF6B
:102FF0000AE00E480068012806D10EA001F0F6FB99
:103000000E490020FDF766FF10BD0000B2A5B7C550
:10301000C6F7D7B4CCACCFC23AB5DAB6FEB8F6B084
:10302000B4BCFCB6CCB0B42E0D0A00007007002072
:10303000D4DDCDA3B2A5B7C52E0D0A006C070020C4
:1030400070B586B0044600250EE004F1180151F871
:103050002500616C6A464B68002198476A462946FC
:1030600019A001F0C3FB6D1CE068A842EDDC2078DC
:1030700018B917A001F0BAFB02E01AA001F0B6FBE4
:10308000A168491E04F1180252F82100616C6A46D9
:103090004B6800219847694617A001F0A7FB17A0CD
:1030A00001F0A4FB642120694843616990FBF1F6BB
:1030B000314615A0626801F099FB1AA001F096FB59
:1030C000002006B070BD000025643A25730D0A008B
:1030D0003C2D2D2D2D2D20D5FDD4DAB2A5B7C53A26
:1030E000000000003C2D2D2D2D2D20D4DDCDA3B2D0
:1030F000A5B7C53A0000000025730000202D2D2D36
:103100002D3E0D0A00000000B2A5B7C5BDF8B6C837
:103110003A2564252520D2F4C1BF3A256425250D22
:103120000A2E00002A2A2A2A2A2A2A2A2A2A2A2A6F
:103130002A2A2A2A2A2A2A2A2A2A2A2A2A2A2A2AEF
:103140002A2A2A2A2A2A2A0D0A00000038B504460B
:103150001748006810B14FF0FF3038BDE06810B973
:103160004FF0FF30F9E7616C08688047012020705C
:10317000322060600120A06000202061A168491E0B
:1031800004F1180252F82100616C6A464B68012173
:10319000984700986061216C08688047206C211D69
:1031A000C268002090470120014908600020D4E750
:1031B000C801002001460878012801D001200870CC
:1031C0000020704710B509A001F010FB0F480068FF
:1031D000401C0E49086008460068642801DD642030
:1031E00008600A490420FDF775FE10BDB2A5B7C5F9
:1031F000C6F7D7B4CCACCFC23AB5DAC8FDB8F6B092
:10320000B4BCFCB3A4B0B42E0D0A00006C070020BF
:1032100010B504A001F0EAFA0A490320FDF75AFEAE
:1032200010BD0000B2A5B7C5C6F7D7B4CCACCFC2AD
:103230003AB5DAC8FDB8F6B0B4BCFCB6CCB0B42E22
:103240000D0A00006C07002094B02FA001F0CEFA08
:1032500058E032480068007800283ED12F480068C6
:1032600040692E4909680969441A142C00DD1424A8
:103270002A4A12681169294A12689268521E274B1D
:103280001B68183353F82200244A1268526C2346F4
:1032900095686A46A8470446002C0DDD1F48006863
:1032A000006C21460269684690471C480068006926
:1032B00020441A49096808611848006800691749DC
:1032C00009684969884203DB14480068FFF71BFE60
:1032D00012480068FFF7B4FE0BE010490968096C5A
:1032E000886880470EA001F081FA42F2107001F068
:1032F0008FFD0A48006800780C4908600C48016896
:103300000C488847A5E70000506C6179657220542D
:1033100068726561642E0D0A00000000B40100208F
:10332000B2A5B7C5CDA3D6B92E0D0A00B8010020AD
:10333000C4010020BC01002010B505A001F056FA20
:10334000FFF766FD0849086008A000F0FFF910BD0E
:10335000506C617965722054687265616420496EB1
:1033600069742E0D0A000000B4010020706C6179B0
:1033700065725F746F7069630000000070B5044689
:103380001248D0F8B801401C0A21B0FBF1F201FB51
:10339000120514B94FF0FF3070BD0C48D0F8BC01D5
:1033A000A84210D00949D1F8B81101EB410202EB53
:1033B000C101064A02EB81002C222146FCF71CFFCA
:1033C0000248C0F8B8510020E6E7000030150020A0
:1033D00029B1064A52690243044B5A6104E0034A88
:1033E00052698243014B5A6170470000001002404D
:1033F00029B1064AD2690243044BDA6104E0034A68
:10340000D2698243014BDA6170470000001002402C
:1034100029B1064A92690243044B9A6104E0034AC7
:1034200092698243014B9A6170470000001002408C
:1034300001490860704700004004424230B5002155
:103440000022002400232D4D6D6805F00C0121B1F0
:10345000042905D0082923D105E0294D056022E083
:10346000274D05601FE0254D6D6805F47012234D52
:103470006D6805F48034022505EB92421CB9214D9C
:10348000554305600BE01D4D6D6805F400351DB119
:103490001C4D5543056002E0194D5543056002E09F
:1034A000174D056000BF00BF144D6D6805F0F001B9
:1034B0000909154D6B5C0568DD4045600F4D6D6871
:1034C00005F4E061090A104D6B5C4568DD408560DC
:1034D0000A4D6D6805F46051C90A0B4D6B5C456877
:1034E000DD40C560054D6D6805F44041890B074D11
:1034F0006B5CC568B5FBF3F5056130BD001002409B
:1035000000127A0000093D00000000201000002099
:1035100010B501460022002300204A11012A02D1E1
:10352000094C236806E0022A02D1074C236A01E015
:10353000054C636A01F01F02012494401C400CB149
:10354000012000E0002010BD001002400149086089
:103550007047000080044242014908607047000043
:103560003C0442420249096A0143014A1162704720
:103570000010024010B54FF4FD600749486101207A
:103580000861C8608860002048600860084600F054
:103590002DF800F0F5F910BDC014002070B50446F8
:1035A00000F050F8054621462846FEF7CDFB70BDD9
:1035B00010B504462046FDF735FA10BD10B503A03E
:1035C00001F014F906A000F0C1F810BD52544320D8
:1035D00054687265616420496E69742E0D0A00009A
:1035E0007274635F746F70696300000070B50446A5
:1035F00000F0CAF900F088F82046FEF72FFC0546D7
:1036000000F064F800F080F870BD000002490988FD
:103610008143014A11807047042800400348008814
:1036200040F0100001490880704700000428004065
:10363000034800884FF6EF71084001490880704741
:1036400004280040002103480188001F008841EA47
:10365000004070471C28004001460020064A12889E
:103660000A40D0B2044A121F12880A4012B108B1AF
:10367000012000E0002070470428004010B5012020
:10368000FFF7EAFF58B10120FFF7C0FF00F03CF858
:103690000348FFF783FF034801680348884710BDCC
:1036A000C0140020540000204C00002029B1064A1C
:1036B00012880243044B1A8004E0034A12888243B2
:1036C000014B1A80704700000028004000B50246F8
:1036D000FFF7A4FF100C03490880091D0A80FFF7BB
:1036E000A7FF00BD1828004000B50246FFF796FF6F
:1036F000C2F3034003490880091D0A80FFF798FFC1
:1037000000BD00000828004000BF0348008800F00A
:1037100020000028F9D0704704280040074800889E
:103720004FF6F77108400549088000BF034800883C
:1037300000F008000028F9D070470000042800407D
:103740000920014908607047BC03002070B5044699
:1037500000250FE0194951F835002146FCF75EFDC0
:10376000064636B9214616A001F040F84FF0FF306A
:1037700070BD6D1C1148001F0068A842EADC21469C
:1037800019A001F033F80D48001F0168001D40F832
:103790003140001F0068401C0849091F08601B4891
:1037A000006800EB80011948001D40F82140001F0F
:1037B0000068401C154908600020D9E77C280020DB
:1037C00052656769737465724D6573736167653AB5
:1037D000D2D1BEADB4E6D4DAC3FBCEAA2573BBB05A
:1037E000CCE22E0D0A0000005265676973746572A1
:1037F0004D6573736167653AD7A2B2E1C3FBCEAA88
:103800002573BBB0CCE22E0D0A000000CC280020AE
:103810002DE9F04106460F46002409E01C4951F805
:1038200034003146FCF7FAFC054605B905E0641C96
:103830001748001F0068A042F0DC00BF0DBB3146F6
:1038400014A000F0D3FF04EB84011F4800EB8100BB
:10385000083004EB84021C4901EB8201496840F8FE
:10386000217004EB8401184800EB81004068401C83
:1038700004EB8402144901EB820148600020BDE89A
:10388000F081314611A000F0B1FF4FF0FF30F6E7B4
:103890007C28002052656769737465725375627382
:1038A0006372696265723ABCD3C8EB737562736305
:1038B0007269626572B5BDBBB0CCE22573B5C4C197
:1038C000B4B1ED2E0D0A0000D028002052656769C2
:1038D00073746572537562736372696265723AB22A
:1038E000BBB4E6D4DAC3FBB3C6CEAA3A2573B5C4DB
:1038F000BBB0CCE22CC7EBCFC8D7A2B2E1BBB0CCF7
:10390000E22E0D0A0000000010B504460D48006BC1
:10391000092800DD10BD6168E161E068606121692E
:10392000A1610848016B006B401C064A106302F15C
:10393000080040F821400838016B03A000F056FF52
:1039400000BFE7E710040020D7A2B2E1B5DA256492
:10395000B8F6524F4C45B3C9B9A62E0D0A00000067
:1039600008B503208DF8000001208DF80300032026
:103970008DF801008DF802006846FEF7EFFF08BDE4
:1039800010B5FFF7EDFF10BD10B501214FF0C0508D
:10399000FFF72EFD0120FFF713F9FCF7E9FD0120E9
:1039A000FFF7D4FD00BF6120FFF7B2FD0028FAD079
:1039B0004FF40070FFF7D6FD0120FFF7CDFDFFF7B4
:1039C000ADFEFFF7A1FE01210846FFF76FFEFFF7EE
:1039D0009BFEFFF723FE49F63F40FFF785FEFFF70A
:1039E00093FEFFF725FE10BD10B504462069804701
:1039F00010BD10B504466068804710BD70B588B032
:103A000006460C46154601210420FFF7F1FC40F262
:103A1000E730ADF81800A0B2ADF814000020ADF802
:103A20001A00ADF816008DF81C0005A9304600F00C
:103A300009FC6020ADF804000220ADF80C00012064
:103A4000ADF80600A8B2ADF80A0001A9304600F0B2
:103A50009FFB0821304600F0EBFB0121304600F0CF
:103A600070FB08B070BD10B5044600224FF483719E
:103A70002046FFF7C3FF10BD38B505460C460121AF
:103A80000420FFF7C5FC14208DF80300A0B2ADF8A8
:103A9000000003208DF8020069462846FDF714FD5A
:103AA00038BD38B505460C4601210820FFF7B0FCAB
:103AB000A0B2ADF8000018208DF8030003208DF8A7
:103AC000020069462846FDF7FFFC38BD38B50446BC
:103AD00001210420FFF79CFC48208DF80300ADF87D
:103AE000004003208DF8020069460248FDF7ECFC17
:103AF00038BD00000008014070B586B006460C468F
:103B0000154601214805FFF773FC01210820FFF746
:103B10007FFC1C208DF8170044EA050080B2ADF848
:103B2000140003208DF8160005A93046FDF7CCFCE3
:103B30004FF48060ADF80E000001ADF810000B48A6
:103B400001904BF6FF70ADF80A000020ADF80800B8
:103B50003020ADF80C0001A90548FEF75DFB0121FE
:103B60000348FEF70CFB06B070BD0000801A06008B
:103B70000054004038B505460C4601210C20FFF7E3
:103B800047FC10208DF80300A0B2ADF80000032020
:103B90008DF8020069462846FDF796FC38BD22B133
:103BA000012A04D0022A08D103E0416106E0016144
:103BB00004E0C3684B40C36000E000BF00BF704733
:103BC000F0B58DB007460C4615461E460121084645
:103BD000FFF7FEFB3846FDF75BF8059610200490D2
:103BE00000200C90039509908020079000200A90F7
:103BF0000294089006904FF480500B9002A938462A
:103C0000FDF70BF910208DF8040001208DF8070056
:103C100000208DF8050001208DF8060001A8FEF7B0
:103C20009DFE012202213846FDF7EEF80DB0F0BDF1
:103C300010B5044600212046FDF71EF840F2014170
:103C40002046FDF708F901212046FDF715F810BDC3
:103C50001FB501210220FFF7CBFB0020ADF80A00C1
:103C6000ADF806000A20ADF808004720ADF80400C2
:103C700001A90F4800F0E6FA1D208DF80000012090
:103C80008DF803008DF8010003208DF802006846CE
:103C9000FEF764FE01221146054800F06FFA01218B
:103CA000034800F04BFA0121014800F04AFA1FBD19
:103CB000000400401FB501210846FFF799FB0020D2
:103CC000ADF80A00ADF806004FF47A70ADF80800C0
:103CD00040F2CF20ADF8040001A94FF0804000F081
:103CE000B1FA1C208DF8000001208DF8030000209F
:103CF0008DF8010001208DF802006846FEF72EFEC7
:103D000001221146900700F039FA0121880700F0DE
:103D100015FA0121880700F014FA1FBD7047000052
:103D20000149086070470000B400002038B504461F
:103D30003020034640222821009006480068FCF706
:103D400031FE054B402228210248006800F026F988
:103D500038BD0000240800207806002010B5FCF7CC
:103D6000C2FA09A0FDF797FE0949086008460068F5
:103D700028B108A000F03AFD0548006810BD0EA06B
:103D800000F034FD0020F9E76F6C6564000000006E
:103D900060010020C9E8D6C3C4ACC8CF44697370C1
:103DA0006C6179446576696365A3BA4F4C4544B349
:103DB000C9B9A62E0D0A0000C9E8D6C3C4ACC8CF45
:103DC000446973706C6179446576696365A3BA4F21
:103DD0004C4544CAA7B0DC2E0D0A000010B5FCF714
:103DE00086FA08A0FDF790FE0849086008460068BA
:103DF00018B107A000F0FAFC02E00CA000F0F6FCFD
:103E000010BD000061736369690000008401002037
:103E1000C9E8D6C3C4ACC8CFD7D6BFE241534349E3
:103E200049B3C9B9A62E0D0A00000000C9E8D6C3DF
:103E3000C4ACC8CFD7D6BFE24153434949CAA7B0A3
:103E4000DC2E0D0A0000000010B504A000F0CEFC2E
:103E500007A000F073FD0949086010BDBBF1B5C3B0
:103E6000C4ACC8CFCDE6BCD2BDC7C9AB2E0D0A00CD
:103E700064696E6F73617572000000005404002065
:103E800010B504460448006810B904A000F0AEFC68
:103E900001200149086010BD44070020BFAACABC28
:103EA000C9E8D6C32E0D0A0010B500F001F810BD08
:103EB0000CB50020019000903348006840F4803039
:103EC0003149086000BF3048006800F400300090BD
:103ED0000198401C0190009818B90198B0F5A06FA6
:103EE000F1D12948006800F4003010B101200090A1
:103EF00001E0002000900098012843D12348006889
:103F000040F01000214908600846006820F00300D6
:103F100008600846006840F0020008601A484068DF
:103F2000194948600846406848600846406840F4BF
:103F3000806048600846406820F47C10486008466D
:103F4000406840F4E81048600846006840F080701F
:103F5000086000BF0C48006800F000700028F9D02D
:103F60000948406820F00300074948600846406857
:103F700040F00200486000BF0348406800F00C00B9
:103F80000828F9D10CBD00000010024000200240BA
:103F90000149086070470000140000202DE9F0413D
:103FA00007460D4616461C46256166612560E06899
:103FB000301A401C606021463846FDF73EF9BDE8E6
:103FC000F08100002DE9F04706460F4690461C465A
:103FD000002500BF0A2094FBF0F100FB11403030B7
:103FE000C2B228466D1C0A490A540A2094FBF0F418
:103FF000002CEFDC00204855084601F016FB8146F6
:104000004B4642463946304600F004F8BDE8F0879A
:10401000042700202DE9F0418AB080460E4617465D
:104020001C4600250596069713E060196946FDF7C2
:1040300027F96D1C0020099001A90098FDF758FD93
:1040400018B901A94046FDF7D5F8079805900898DA
:104050000690605D0028E8D10AB0BDE8F08170B537
:1040600004460D4629462046FFF7D2FB70BD0000EE
:1040700010B502A000F0BAFB10BD00007469636BBC
:104080002E0D0A0010B51348006840F001001149D8
:10409000086008464068104908400E4948600846D4
:1040A00000680E4908400B4908600846006820F483
:1040B000802008600846406820F4FE0048604FF405
:1040C0001F008860FFF7F0FE4FF0006004490860B1
:1040D00010BD0000001002400000FFF8FFFFF6FED8
:1040E00008ED00E010B50121880700F036F878B13E
:1040F0000121880700F022F80648006810B1054841
:104100000068804704480068012801D100F0E4F904
:1041100010BD0000140000204C01002010B501214A
:10412000054800F01AF828B10121034800F006F80C
:1041300000F0E4F910BD000000040040CA43028210
:10414000704721B1028842F00102028004E0028837
:104150004FF6FE731A400280704730B502460020C9
:1041600000230024158A05EA0103958905EA010464
:1041700013B10CB1012000E0002030BD1AB18389D9
:104180000B43838102E083898B4383817047000066
:1041900070B5002400220023058C4FF6FF663540E1
:1041A0000584028C8388848B4FF68F752C404FF6E4
:1041B000FC752C400D882C434FF6FF552A400D8985
:1041C0004FF6FF7606EA05252A434D8806EA0525BF
:1041D0002A43154DA84202D0144DA8421DD14FF2DA
:1041E000FF752A404D894FF6FF7606EA05252A43DA
:1041F0004FF6FF352A408D8806EA05252A434EF6FC
:10420000FF752B404DF6FF752B408D8906EA05158D
:104210002B43CD8906EA05152B4383808483CD8803
:104220008587028470BD0000002C014000340140ED
:104230000A460021818B4FF6F773194011438183A1
:1042400070470000002202881D4B98420ED01D4B83
:1042500098420BD0B0F1804F08D01B4B984205D04C
:104260001A4B984202D01A4B984204D14FF68F73E2
:104270001A404B881A43174B984207D0164B984266
:1042800004D04FF6FF431A40CB881A4302808B8834
:1042900083850B8803850A4B98420BD0094B9842C3
:1042A00008D00E4B984205D00D4B984202D00D4BD2
:1042B000984201D10B7A0386012383827047000064
:1042C000002C014000340140000400400008004080
:1042D000000C00400010004000140040004001406D
:1042E000004401400048014010B504466069804721
:1042F00010BD10B50446A068804710BD38B504460F
:104300002948006800283ED0402080230246002132
:10431000009026480068FCF745FB23480068401ED3
:1043200021490860224B1822002120480068FFF72D
:1043300035FE204B102214211C480068FFF72EFE8A
:104340001D4B1022702119480068FFF727FE1B4BF8
:1043500030220C2115480068FFF720FE184B302250
:10436000642112480068FFF719FE164B4022042111
:104370000E480068FFF712FE134B40226C210B48D9
:104380000068FFF70BFE30200346402228210090F2
:1043900006480068FCF706FB0C4B40222821034826
:1043A0000068FFF7FBFD38BDA004002024080020B2
:1043B000A8040020C8040020E8040020080500200C
:1043C000280500206805002088050020C40500207D
:1043D0003EB5054630A0FDF747FC04462F4800686F
:1043E00080B92FA000F002FA40208023024600216D
:1043F000009030480068FCF7D5FA28480068401C57
:1044000026490860022120462269904701A8FCF74E
:10441000BFFB00283BD028A31022002125480068BC
:10442000FFF7F8FD9DF8063010225F212148006853
:10443000FFF7C8FD24A310226E211E480068FFF775
:10444000E9FD9DF80730102273211A480068FFF734
:10445000B9FD1EA32022002116480068FFF7DAFDEF
:104460009DF804302022462112480068FFF7AAFD7B
:1044700015A3202256210F480068FFF7CBFD9DF8B9
:10448000053020225A210B480068FFF79BFD4FF4AE
:104490007A70FCF771FD3EBD52454400A004002037
:1044A000BFAACABCCEC2CAAAB6C8BCECB2E22E0D24
:1044B0000A0000002408002054656D706572617464
:1044C0007572653A000000002E00000048756D69A5
:1044D000646974793A00000010B506480068401C11
:1044E0000449086004480068C169034800688847B7
:1044F000002010BD64010020600100200448006815
:1045000020B103480068401E014908607047000060
:104510001800002010B5044800F0FCF8C4B20349AC
:10452000204601F09AF810BD00380140B810002074
:1045300021B1828942F40052828104E082894DF6E1
:10454000FF731A408281704700B585B001210420B5
:10455000FEF75EFF01218803FEF75AFF4FF400705B
:10456000ADF8100018208DF8130003208DF812000C
:1045700004A91748FCF7A8FF4FF48060ADF81000BD
:1045800004208DF8130004A91148FCF79DFF4FF497
:10459000E13000900020ADF80400ADF80600ADF861
:1045A0000800ADF80C000C20ADF80A006946094877
:1045B00000F044F8FEF7BDF9012240F2255105480C
:1045C00000F017F801210348FFF7B2FF05B000BD66
:1045D000000801400038014002460020B1F5007F8C
:1045E00000D100BF13880B400BB1012000E0002078
:1045F0007047F0B50346002400260025002040F651
:104600006A17B94200D100BF1846C1F3421401F045
:104610001F06012707FA06F5012C01D10C3004E032
:10462000022C01D1103000E014301AB107682F437A
:10463000076002E00768AF430760F0BD2DE9F0476F
:1046400086B005460E460024A24600BFA1460027BC
:10465000B08900B100BF2F462C8A4CF6FF70044091
:10466000F08804432C82AC894EF6F3100440B088E5
:1046700031890843718908430443AC81AC8A4FF601
:10468000FF400440B0890443AC8201A8FEF7D6FE87
:104690001F48874202D1DDF810A001E0DDF80CA030
:1046A000A88900F4004040B10AEBCA0000EB0A10F0
:1046B00031684900B0FBF1F807E00AEBCA0000EBF3
:1046C0000A1031688900B0FBF1F86420B8FBF0F003
:1046D00004012009642101FB1089A88900F400402D
:1046E00040B1322000EBC900B0FBF1F000F0070050
:1046F000044308E0322000EB09106421B0FBF1F024
:1047000000F00F0004432C8106B0BDE8F0870000E4
:104710000038014001468888C0F308007047C1F3A3
:1047200008028280704700BFFEE7000070B5412498
:104730000DA5FFF709FF0F4800F08AFF05E02146AD
:104740000D4800F02FF8601CC4B25A2CF7DD0BA105
:10475000094800F036F829460BA000F047F80CA0F5
:1047600000F044F870BD000031303061736B207789
:1047700064730000B8100020003801400D0A313089
:104780003061736B0D0A00006E622C25730D0A00F8
:10479000B4AEBFDAB3F5CABCBBAFCDEAB3C92E0D18
:1047A0000A00000070B504460D4629462046FFF772
:1047B000B6FF00BF80212046FFF70EFF0028F9D08A
:1047C00070BD70B506460C46002500BF615D3046E1
:1047D000FFF7E8FF6D1C605D0028F7D100BF4021A6
:1047E0003046FFF7F9FE0028F9D070BD0FB4054B35
:1047F00010B503A9044A029800F036F910BC5DF820
:1048000014FB0000154F00082C08002010B5FCF721
:10481000EFF80446302221460448FBF7EDFC03493B
:10482000486880470248FFF7B3FB10BD0015002021
:10483000A552000810B50446024841682046884742
:1048400010BD00005001002070B5064600250EE0A6
:104850000C4850F8254031462068FBF7DFFC28B9AA
:10486000314609A0FFF7C2FF204670BD6D1C054808
:10487000001F0068A842EBD8314607A0FFF7B6FF3B
:104880000020F2E71C270020B5C3B5BDC9E8B1B8C8
:104890003A25730D0A000000C3BBD3D0B5C3B5BD24
:1048A000C9E8B1B83A25730D0A00000070B5064694
:1048B00000250AE0084850F8254031462068FBF7FB
:1048C000ADFC08B9204670BD6D1C0348083800686F
:1048D000A842EFD80020F6E75801002070B5064640
:1048E00000250AE0084850F8254031462068FBF7CB
:1048F00095FC08B9204670BD6D1C0348001F006878
:10490000A842EFD80020F6E7F42600200848006807
:1049100008B1002070470020064908704860886090
:10492000C860054808610120014908600148F1E7B5
:1049300058040020BC2700204404002070B506461F
:1049400000250AE0084850F8254031462068FBF76A
:1049500065FC08B9204670BD6D1C03480838006B23
:10496000A842EFDC0020F6E71804002070B50646E8
:1049700000250AE0084850F8254031462068FBF73A
:104980004DFC08B9204670BD6D1C0348001F00682F
:10499000A842EFD80020F6E7F814002070B50646CC
:1049A00000250AE0084850F8254031462068FBF70A
:1049B00035FC08B9204670BD6D1C0348001F006817
:1049C000A842EFD80020F6E7E014002070B50646B4
:1049D00000250EE00C4850F8254031462068FBF7D2
:1049E0001DFC28B9314609A0FFF700FF204670BD25
:1049F0006D1C0548001F0068A842EBD8314607A08F
:104A0000FFF7F4FE0020F2E728280020B5C3B5BD6B
:104A1000D1A1CFEE3A25730D0A000000C3BBD3D05D
:104A2000B5C3B5BDD1A1CFEE3A25730D0A00000084
:104A300010B50448046802E0A06880472469002C8F
:104A4000FAD110BD2401002002E008C8121F08C1DD
:104A5000002AFAD170477047002001E001C1121FFF
:104A6000002AFBD1704700002DE9FF4F8BB09A461A
:104A70000F460546002606E025280BD052460D9924
:104A800090476D1C761C28780028F5D10FB0304671
:104A9000BDE8F08F0024A0460122604900E00443F5
:104AA00015F8013F203B02FA03F00842F7D12878BD
:104AB0002E2817D115F8010F44F004042A280ED02F
:104AC0006FF02F022878A0F1300109290AD808EBED
:104AD000880102EB410100EB01086D1CF2E757F879
:104AE000048B6D1C287869283ED006DC0028CDD0C8
:104AF00063280BD0642804D136E0732810D07528C1
:104B00004BD052460D999047761C85E017F8040B60
:104B10008DF8000000208DF80100E946012003E037
:104B200057F8049B4FF0FF3061074FF0000401D4A9
:104B30000AE0641C44450DDA8442FADB19F80410DB
:104B40000029F6D106E0641C8442FCDB19F804104D
:104B50000029F8D1264404E019F8010B52460D99BA
:104B60009047641EF8D257E001CF4FF00A0B00289F
:104B700002DA40422D2102E0210504D52B218DF8D7
:104B80002410012103E0E10705D02021F7E70DF112
:104B9000200908910CE00021F9E701CF4FF00A0B42
:104BA000F9E75946FBF748FB01F1300209F8012DFE
:104BB0000028F6D1ADEB090000F1200B600701D40D
:104BC0004FF00108D84502DDA8EB0B0000E0002003
:104BD0008046002406E009A85246005D0D999047E2
:104BE000641C761C08988442F5DB04E030205246B1
:104BF0000D999047761CB8F10001A8F10108F5DC89
:104C000005E019F8010B52460D999047761CBBF14F
:104C10000001ABF1010BF4DC6D1C34E70928010045
:104C200010B50748006801210269054800689047EF
:104C300004480068C169034800688847002010BD27
:104C4000A8010020AC010020024682B9094B086887
:104C5000186018460068642802DD6420186006E0C9
:104C600004480068002802DA0020024B186001485E
:104C700000687047B001002010B506A0FCF7F4FFF3
:104C80000549086005A0FCF7E7FE0649086000201A
:104C900010BD000052454400A80100206265657007
:104CA00000000000AC01002010B50448006800219D
:104CB0000269024800689047002010BDA80100204A
:104CC00070B504460E462546114800680221026967
:104CD0000F48006890470F482968006843690E48EC
:104CE00002680C4800689847696801EB81018800F8
:104CF00000F08EF807480068C169064800688847D8
:104D0000A96801EB8101880000F082F8304670BD8F
:104D1000A8010020AC010020B001002010B504461D
:104D20000348006818B1204601490968884710BD4A
:104D3000B400002070B5044625460448D5E9023188
:104D40002A690068FBF714FE002070BD24080020CB
:104D500070B5044625460448D5E902312A69006841
:104D6000FBF706FE002070BD2408002070B5044645
:104D700025460448D5E902312A690068FBF7F8FDA9
:104D8000002070BD24080020014600207047034623
:104D90000A461946022A0CD1486800F4803080B1D6
:104DA000486820F480304860486840F0010048605E
:104DB00007E022B9486840F08050486001E0486848
:104DC00048600020704770B506460C46154624B969
:104DD00029463046FCF754FE05E0012C03D130464D
:104DE000FCF740FE2860002070BD10B5FBF778FC92
:104DF000002010BD2DE9F04104460D4616461F4621
:104E0000324629462046FBF781FC0120BDE8F081AF
:104E1000002106E0002200E0521CB2F57A7FFBDBA5
:104E2000491C8142F6DB704770B50446254628468A
:104E3000FFF780FF284600F055F9284600F076F885
:104E4000002070BD70B5044625462846FFF772FF66
:104E5000284600F077F9284600F068F8002070BD79
:104E600070B5044625462846FFF772FF284600F035
:104E700099F9284600F068F8002070BD70B5044626
:104E800025462846FFF772FF284600F0ABF9284672
:104E900000F068F8002070BD70B50446254628462D
:104EA000FFF772FF284600F0EBF9284600F068F89B
:104EB000002070BD70B506460C46354605F1080069
:104EC00050F82400406800F0805010B305F108024B
:104ED00052F8240052F82420516A884705F108004E
:104EE00050F82400406800F4801090B1FBF7C0FF38
:104EF00078B105F1080050F82400C0681C2808DAD1
:104F000005F1080050F82400C068002801DDFBF717
:104F1000A5FF70BD70B504460D46E1B20248FFF72B
:104F200041FC204670BD00000038014070B50446C9
:104F300025460448D5E902312A690068FFF72EF8B2
:104F4000002070BD2408002070B5044625460448A2
:104F5000D5E902312A690068FFF720F8002070BD0A
:104F60002408002070B5044625460448D5E90231DE
:104F70002A690068FFF712F8002070BD240800209D
:104F800070B5044625460448D5E902312A6900680F
:104F9000FFF704F8002070BD240800201CB5FBF7C3
:104FA000FFFB00F09BFB4FF4007018490023184AE8
:104FB000CDE9001017A11B4800F0A2FB4FF40070D0
:104FC00019490023194ACDE9001019A11B4800F026
:104FD00097FB4FF400701A4900231A4ACDE90010DC
:104FE00019A11D4800F08CFB4FF400701B490023F1
:104FF0001B4ACDE900101BA11D4800F081FB0F48A2
:105000001C49086000F070FB00201CBDB80800209F
:10501000D52400086C6F6769635F746872656164AA
:105020000000000038080020B80A00209528000879
:105030006D656E755F746872656164005808002064
:10504000B80C002049320008706C617965725F7499
:10505000687265616400000078080020B80E0020C6
:105060002519000867616D655F7468726561640089
:105070009808002020080020F0B50B30154D20F0D6
:1050800007010024144A0FE003688B420BD38B42C4
:1050900005D95E1A43184768C3E9006700E0436812
:1050A000136002C004E0021D10680028ECD1204605
:1050B000002802D1286808B10020F0BD064A074840
:1050C0001060074A121A22F00702C0E900240120EA
:1050D0002860D7E73408002030080020BC290020D1
:1050E000B82B002070B504462546E868C01EE8606D
:1050F0001249E8680860E86810F1100F1BDA1048E0
:1051000000685C2809DAFBF765F8282190FBF1F2CA
:1051100001FB12008030E8600DE0FBF75BF806460B
:10512000C01706EB90608011A6EB80110448006860
:1051300028300844E860002070BD00001003002003
:105140001403002070B504462546E868C01EE860D8
:105150001249E8680860E86810F1100F1BDA10487F
:1051600000685C2809DAFBF735F8282190FBF1F29A
:1051700001FB12008030E8600DE0FBF72BF80646DB
:10518000C01706EB90608011A6EB80110448006800
:1051900028300844E860002070BD0000140300209F
:1051A0001003002070B504462546E868401EE860FC
:1051B000E86810F1180F13DAFBF70CF80646C01771
:1051C00006EB5060C011A6EBC0108030E860FBF722
:1051D00001F8182190FBF1F201FB1200093028615F
:1051E000002070BD10B502461146087900F001009C
:1051F000C0B121480B690068401E204C205C181A81
:1052000008611D480068401E1B4B18601846006866
:1052100020BB486820F001004860486840F010005A
:1052200048601BE0087900F01000B8B1134B124C35
:10523000086924681B5D184408610F480068401C19
:105240000D4B186018460068092807D1486820F0FF
:1052500010004860486840F4803048608B68DB6923
:1052600003F12000C31700EB93639B11A0EB8313A2
:105270008C68E361002010BDBC030020B003002057
:1052800001460A469068C069C01C9368D86190685E
:10529000C069B0F5E17F02D100209368D861002099
:1052A0007047000070B50024B0E05C4850F824005E
:1052B00085685A4850F82400008A81B25848FCF7A3
:1052C0008EF90146554850F82400406881426AD161
:1052D000524850F824008168491C504850F8240076
:1052E00081604E4850F824008068022812D10021C5
:1052F0004A4850F82400017500BF484850F824007F
:10530000806930B1454A52F8240052F8242091694E
:10531000884779E0414850F824008068232812D15A
:1053200002213E4850F82400017500BF3B4850F868
:105330002400806930B1394A52F8240052F8242000
:105340009169884760E0354850F824008068232838
:105350005ADD0321314850F8240001752F4850F8D8
:105360002400C06800284FD02C4850F82400C068A2
:10537000142190FBF1F1294850F82400806890FB3B
:10538000F1F201FB120000283ED000BF234850F884
:105390002400806930B1214A52F8240052F82420B8
:1053A0009169884730E000211C4850F82400816052
:1053B000022D14D3232D12D20121184850F82400B5
:1053C000017500BF154850F82400806930B1134AB8
:1053D00052F8240052F824209169884714E0232DC4
:1053E00012D304210D4850F82400017500BF0B486A
:1053F00050F82400806930B1084A52F8240052F86D
:1054000024209169884700BF601CC4B20348083853
:105410000068A0423FF649AF70BD000008150020AB
:105420000008014010B50021084600F0D1F8002422
:1054300003E00020FDF72DFB641CB4F5806FF8DB62
:1054400010BD000010B52048006800283BD11F495E
:1054500008601F480068416A1D480068884700BF0F
:105460004FF400311B48FCF7BAFE0028F8D10121A7
:105470001848FCF79CFE00BF17491648FCF76AFE67
:105480000028F9D0002278211248FCF73BFF00BF2A
:1054900012491048FCF75EFE0028F9D040210D4863
:1054A000FCF739FF00BF0D49891C0A48FCF752FE82
:1054B0000028F8D006480068816A054800688847D7
:1054C00001200149086010BD6C010020640100202A
:1054D0006801002000540040010003008200070022
:1054E0002DE9F04106460F4639463046FDF720FBD0
:1054F000002406E0002500E06D1CB5F57A7FFBDB9B
:10550000641CB4F57A7FF5DBAE20FDF7BBFA2020F2
:10551000FDF7B8FA0020FDF7B5FAB020FDF7B2FAB2
:10552000C820FDF7AFFA0020FDF7ACFA1020FDF718
:10553000A9FA4020FDF7A6FA8120FDF7A3FAFF2083
:10554000FDF7A0FAA120FDF79DFAA620FDF79AFA33
:10555000A820FDF797FA3F20FDF794FAA420FDF765
:1055600091FAD320FDF78EFA0020FDF78BFAD520B3
:10557000FDF788FAF020FDF785FAD920FDF782FAC9
:105580002220FDF77FFADA20FDF77CFA1220FDF7E2
:1055900079FADB20FDF776FA2020FDF773FA8D20EB
:1055A000FDF770FA1420FDF76DFAAF20FDF76AFAE7
:1055B00005480068416A044800688847012103489B
:1055C000FCF7E9FDBDE8F0816801002000540040CF
:1055D00070B504460D46E9B241F0B000FDF752FA4D
:1055E000C4F3031141F01000FDF74CFA04F00F0072
:1055F000FDF748FA70BD01464A69CA608A690A61C6
:10560000CA694A60704770B505460C462E4606F1D9
:10561000080050F8240038B106F1080252F82400BE
:1056200052F82420916A884770BD10B502460146A1
:1056300000E0491C0C78002CFBD1491E05E01378D2
:105640000C7802F8014B01F801399142F7D810BDEE
:10565000D0F80014C0F8041470470246D1F80004D2
:10566000401CC0F30903D1F80404984204D0D1F8D7
:1056700000040A54C1F8003400207047F0B5034616
:105680000C461546281D20F0070040380146002230
:1056900003E0094E41F82260521C102AF9D30C6233
:1056A00000274F628F62CF620F634F638B634FF0AF
:1056B0008077CF63F0BD0000EFBEADDE70B504466D
:1056C000054805680460A54200D170BD211D281D54
:1056D000FAF747FD00BFF8E71C0800200020014949
:1056E000086070471C08002070B504462546034832
:1056F0000560281DFAF71DFD70BD00001C08002084
:105700002DE9F04704460D4616461F46DDE9088997
:1057100004F118004060006000BF2560A660E760EB
:10572000C4F81080C4F81490D4E9043C63441A1FF0
:10573000D4E90201FFF7A2FF60600020BDE8F08716
:1057400070B505462C460020E06006E0D4E9020171
:1057500002689047E068401CE060D4E90210096BE1
:105760008842F3DB70BD70B505462C460020E06032
:1057700006E0D4E9020142689047E068401CE0601E
:10578000D4E90210096B8842F3DBFDF7D9FFFCF77F
:10579000D9FD70BD000000001F0000003B000000AC
:1057A0005A0000007800000097000000B5000000DB
:1057B000D4000000F30000001101000030010000DF
:1057C0004E0100000000000000000000000000008A
:1057D0000000000000FE020202020202003F202040
:1057E0002020202000000000000000000000000039
:1057F0000000000000FE020202020202003F202020
:105800002020202000FE020202020202003F20208F
:105810002020202000FE020202020202003F20207F
:105820002020202000FE020202020202003F20206F
:105830002020202000FE020202020202003F20205F
:105840002020202000FE020202020202003F20204F
:1058500020202020000000000000000000000000C8
:105860000000000000000000000000000000000038
:105870000000000000000000000000000000000028
:105880000000000000FE020202020202003F20208F
:105890002020202000FE020202020202003F2020FF
:1058A0002020202000FE020202020202003F2020EF
:1058B0002020202000FE020202020202003F2020DF
:1058C0002020202000FE020202020202003F2020CF
:1058D0002020202000FE020202020202003F2020BF
:1058E0002020202000FE020202020202003F2020AF
:1058F0002020202000FE020202020202003F20209F
:105900002020202000FE020202020202003F20208E
:105910002020202000FE020202020202003F20207E
:105920002020202000FE020202020202003F20206E
:105930002020202000FE020202020202003F20205E
:105940002020202000FE020202020202003F20204E
:105950002020202000FE020202020202003F20203E
:105960002020202000FE020202020202003F20202E
:105970002020202000FE020202020202003F20201E
:105980002020202000000000000000000000000097
:105990000000000000000000000000000000000007
:1059A00000000000000000000000000000000000F7
:1059B00000000000000000000000000000000000E7
:1059C00000000000000000000000000000000000D7
:1059D00000000000000000F800000000000000339C
:1059E0000000000000100C02100C0200000000007B
:1059F000000000000040C07840C0780000043F0470
:105A0000043F040000708888FC0830000018202043
:105A1000FF211E00F008F0806018000000310C0328
:105A20001E211E0000F00888700000001E21232C9B
:105A30001927211000120E000000000000000000D5
:105A400000000000000000E0180402000000000751
:105A50001820400000020418E00000000040201858
:105A600007000000404080F0804040000202010F2B
:105A70000102020000000000E0000000000101013E
:105A80000F01010100000000000000000090700004
:105A90000000000000000000000000000001010103
:105AA0000101010000000000000000000030300093
:105AB0000000000000000000C0380400006018076B
:105AC0000000000000E010080810E000000F1020A7
:105AD00020100F0000001010F8000000000020202F
